:020000040000FA
:10000000021BC6022003FFFFFFFFFF02200BFFFFC2
:10001000FFFFFF022013FFFFFFFFFF02201BFFFF78
:10002000FFFFFF022023FFFFFFFFFF02202BFFFF48
:10003000FFFFFF021305FFFFFFFFFF02203BFFFF53
:10004000FFFFFF022043FFFFFFFFFF02204BFFFFE8
:10005000FFFFFF022053FFFFFFFFFF02205BFFFFB8
:10006000FFFFFF022063FFFFFFFFFF02206BFFFF88
:10007000FFFFFF022073FFFFFFFFFF02207BFFFF58
:10008000FFFFFF022083FFFFFFFFFF02208B002006
:10009000000090200000932000000100000000C834
:1000A00003000000000000000400FFFFFFFF00C28B
:1000B000010000002600FFFFFFFFFFFFFFFF04031A
:1000C00009042403540065007800610073002000D7
:1000D00049006E0073007400720075006D006500C9
:1000E0006E00740073002403540049002000430094
:1000F000430032003500330031002000550053002A
:100100004200200043004400430000035F005F0002
:100110003000580000000000000000000000000057
:1001200000000000000000000000000000000000CF
:10013000000000003031323334353637383941422F
:10014000434445467F18D418D418D418D418DC1862
:1001500074F71217BA1207A3700FA3A3E0700AA3D3
:10016000E064027002A3E060089005A47404020237
:10017000119005B6E02480600814602D14603A8068
:10018000E89005BAE070E29005B0E0600478018084
:100190000278009005BEE8F0A3E4F09005AFE060BF
:1001A000559005BEE04402804990059DE0640470CE
:1001B000B89005BEE4F0A3803C9005BAE0547FF50A
:1001C0000890059DE0640470A0E508C3940650996A
:1001D0009005BAE05480600C1202FBE06403700CDE
:1001E0007801800A1202EEE0640360F47800900562
:1001F000BEE8F0A3E4F09005A4E064046014900568
:10020000B174BEF0A37405F0A3E4F0A37402120865
:1002100002F07F02021A2674F71217BAE9FE90055F
:10022000BC1207A6701090059DE064046010900554
:10023000BA1207A660089005A474040202E89005AB
:10024000B6E0541F600814600D14602380E8900528
:10025000B8E06401600579000202EBEE9005AFF0B2
:1002600060047905800279067A001217B8807A90C6
:1002700005BAE0547FFA9005B8E070DAEAC3940654
:1002800050B4EA90620EF09005BAE05480602AEE15
:100290006004741080027440906211F0EE60047487
:1002A000038001E4C0E08A081202FBD0E0F0EE60B7
:1002B000047908802C79078028EE6004742080027D
:1002C0007480906214F0EE600474038001E4C0E076
:1002D0008A081202EED0E0F0EE6004790A8002791A
:1002E000091217B890620EE4F0790102021274A9A3
:1002F0002508F58274053400F5832274A42508F5D9
:100300008274053400F583227900120217E9700324
:100310001217A7227901120217E970031217B622E9
:10032000C082C0839005BA1207A67014A31207A654
:10033000700E9005B8E05480F8A3E0F9E849600732
:100340009005A47404801D9005B8E0906200F090C0
:10035000059D6009E06402700C74038007E064038B
:1003600070037402F0D083D0822274F51217BA9011
:1003700005B9E014600814601914604C806412130D
:100380009C120527A37B80121AEEA3F0A3E4F002CF
:1003900004DE9005B8E0FA79001213BE1205277B3F
:1003A00080E924020909EA3400FA121AEEFC19194C
:1003B000E0FAA3E92403090909EA3400FA121AEE63
:1003C000F9ECA3F0A3E980C69005B8E0F912142C6B
:1003D0009005B1EAF0A3EBF0A3E4120536A37B008D
:1003E00080A59005B1E4F0A3F0A3F0FA0204B27581
:1003F000090074037808121B91120540E493C0E0D1
:100400009005B9E0F8D0E06860030204B18A08758D
:10041000090074037808121B91120540A3E493C0ED
:10042000E09005B8E0F8D0E06860030204B18A0803
:1004300075090074037808121B91120558E493C0E3
:10044000E09005BBE0F8D0E06870668A08750900A6
:1004500074037808121B91120558A3E493C0E0902E
:1004600005BAE0F8D0E06870488A0875090074039E
:100470007808121B9112054CF988828983A3A3A3E3
:10048000A3E493F508740193F5099005B1E508F02C
:10049000A3E509F0A37480F088828983A3A3A3A3B2
:1004A000A3A3E493F8740193F99005B4E8F0A3E9E9
:1004B000F00A8A0890067A1206AC75830675827C6B
:1004C000E0C398F50AA3E099F50B7403780A121BB0
:1004D000B7C3E508950AE4950B50030203EF9005B6
:1004E000B1E0FCA3E0FDA3E0FEEC4D4E9005A4704E
:1004F000047404802CE0640460289005B41206ACF7
:100500007583057582BCC3E098A3E099500E9005F1
:10051000BC1206AC9005B4E8F0A3E9F09005A47411
:1005200001F07F04021A269005B1EAF0A3EBF0A3D4
:10053000748012053622F09005B1E0F9A3E0FA22AA
:100540001205442212054C8882F5832290067AE037
:100550002508F8A3E0350922120544A3A32274EF6D
:100560001217BA8A088B098A828B83A3A3A3A3E4F8
:1005700093602690067E1206ACE8FEE98007EE2422
:1005800004FEEF3400FF8E828F83E493F8740193AE
:10059000F9EA687002EB6970E5750C00804A9062B8
:1005A000147490F0741012069C70027940750A0160
:1005B000750B00E50E780A121B918E828F83A3A320
:1005C000A393550A6004E9D2E0F9E9906215F0EAD4
:1005D000906213F074A9250EF58274053400F5833A
:1005E000E4F090620EF0050C850882850983A3A3D0
:1005F000A3A3E493F8E50CC39840030206977A009E
:10060000790512132E8A0A8B0BEA450B60D8EA246F
:1006100002F8EB3400F9E8FCE9FD8C828D83E49369
:10062000540FF50E90620EF079008A828B83A3A39B
:10063000A3A3E4932407F510A3E4933400F5117405
:10064000037810121BB7AA108C828D8393A2E74007
:100650000302059E9062117448F0740812069C70A3
:10066000027940750A01750B00E50E780A121B919C
:100670008E828F83A3A393550A6004E9D2E0F9E93F
:10068000906212F0EA906210F0850E0A74A4250AB6
:10069000F58274050205DC7F0A021A26F0850A82BB
:1006A0008B83A3A3A3E4935403640122E0F8A3E0A3
:1006B000F922C082C0831207A37010A31207A6708C
:1006C0000AA3E064017002A3E060079005A474042B
:1006D000800C9005B1749EF0A374051207F8F00227
:1006E000036574F61217BA90059DE06402601490D9
:1006F00005BA1207A6700CA31207A670069005B9DA
:10070000E060099005A47404F00207917A00790171
:100710001217B89005B8E060637A00F91213BE8A28
:10072000088B09AE08AF09EE4F604990059D74042F
:10073000F09005B8E090059EF0750A008E828F83D8
:10074000A3A3A3A3E493F8E50AC398503D850A0840
:10075000120796E4F07A00790412132E8A828B83B2
:10076000A3A3A3E493F8120796E06870E812055E6D
:10077000050A80C89005A47404F0800E90059EF0D0
:1007800090059D7403F0F9120F5E7A00790212173A
:10079000B87F03021A26749F2508F5827405340079
:1007A000F583229005B8E0F8A3E0F9E8492274F651
:1007B0001217BA90059DE0640470199005B6E064C4
:1007C0008170111207A3700C9005BCE064017002E7
:1007D000A3E060079005A47404801A9005BAE02491
:1007E0009FF508A3E03405F5099005B1E508F0A3ED
:1007F000E5091207F8F08099F0A3E4F0A3041208C9
:100800000222F0A3E4F09005A4042274F71217BAB0
:1008100090059DE0640470109005B6E064017008D6
:100820009005BC1207A660089005A47404F08052DD
:100830009005B8E0FB9005BAE0FA90059EE0F91249
:1008400013F68A088B09AE08AF09EE4F60DA9005FF
:10085000BAE0FA79031217B89005B8E0C0E0900545
:10086000BAE0249FF8A3E03405F988828983D0E0B8
:10087000F0EEFAEFFB12055E9005BAE0FA79041289
:1008800017B802021274F81217BA74FF121B517EC5
:10089000008033900384E0F8851882851983E0682E
:1008A000700D900382E0644D7005120AD2E9FE904B
:1008B0000385E4F0900387F0851882851983E0F8BA
:1008C000900384E068F07901851882851983AA82F3
:1008D000AB831210D5E97003020983E0C0E09003F6
:1008E00087E0F8900385E0FAE82AF8E43400120C77
:1008F00086D0E0F0900387E0601114602014603E21
:1009000014604E14606414608A80AD851882851965
:1009100083E064FE70A29003877401809A90038440
:10092000E4F0851882851983E0900386F0C39480F3
:100930009003874004E40208B774020208B78518E0
:1009400082851983E0900382F09003877403020884
:10095000B7851882851983E0900383F0900386E0C1
:10096000601990038774040208B7900385E004F0CF
:10097000F8900386E06860030208B8900387740566
:100980000208B7EEF97401121B087F01021A2674DF
:10099000ED1217BA74FB121B517508047509007823
:1009A00008121B6B7402121C09120C73121B0885AF
:1009B0001882E0F47003A3E0F4600F8518828519B3
:1009C00083E0F8A3E0F9E8497003020AC674021252
:1009D0001C09E0687003A3E0697003020AA07508AF
:1009E000009005C07810121BD5800A9005C47810BD
:1009F000121B7C604A750A01750B00780A121B6B8A
:100A00007406121C09AC82AD8385100A85110BAAED
:100A10000AE50B5407FB8A0C85110D85120E851310
:100A20000F740B780C121B22A90C120C7D121B08E0
:100A3000E0F9AA08AB09120C928A088B0980089089
:100A400005C87810121BD59005CC7810121BA49005
:100A500005D07810121AB45092E4F9120C92E4F90D
:100A6000120C927402121C09EAF0A3EBF075080153
:100A70007509007808121B6B7402121C09AC82AD58
:100A8000837A247B081215D47402121B087508049B
:100A90007808121B6B7402121C09120C73121B08CB
:100AA000120C65121C09E0687003A3E069701785D9
:100AB0001882851983E0F47003A3E0F46008E84924
:100AC00060047901800279007405121B087F0C0212
:100AD0001A2674F31217BA74FC121B51900306E025
:100AE000FAA3E0F9EA2400F8F508E93408F50975F5
:100AF0000A017F007E00900383E014600C146040C4
:100B0000147003020B99020C16E5095401F9E84927
:100B10007011880C85090D7409780C121BB7A90C8B
:100B2000121638750C108E0D780C121B6B7C087D1C
:100B300003AA08AB091215D47402121B08020C1682
:100B4000880C85090D7409780C121BB7E50CC39449
:100B50007940040F020C16750A408E0B780A121B9E
:100B60006B7C097D03EAF50AE5095401F50B740273
:100B7000780A121B91AA0AAB0B74097808121BB7EA
:100B8000A908120C7D121B08900307E0A3F0900344
:100B900006E0A3F0750A43807D7508048E09780885
:100BA000121B6B7402121C09120C73121B087402C4
:100BB000121C09E0F8A3E0F9851882851983E06822
:100BC0007003A3E069603B120C65121C09E8F0A3F6
:100BD000E9F07508017808121B6B7402121C09AC4D
:100BE00082AD837A247B081215D47402121B087517
:100BF00008047808121B6B7402121C09120C731281
:100C00001B08120C65121C09E0687003A3E06970F0
:100C1000030E80027F07900305E0D2E7F0EFA3F018
:100C2000E50A900303F0744D650AF5087404250A7B
:100C3000FB7A038007120C83E062080AEAC39BA2D6
:100C4000D265D033EAF840ED120C83E508F0740168
:100C50002AF97A027B03121115EEF97404121B08AB
:100C60007F06021A26851882851983E0F8A3E0F929
:100C7000740222AC82AD837A907B00790412154F06
:100C80007402223395E0F9740228F582740339F571
:100C90008322C008C0097C088A088B09740F780871
:100CA000121BB7EAC333FAEB33FBE9A2E750047433
:100CB000014AFAE508A2E0500874216AFA74106B40
:100CC000FBE9C333F91CEC70CFD009D00822C082F5
:100CD000C0837A0079011213BE8A828B83A3A3A3F7
:100CE000A3A3A3A3E493A2E69005B05004740180EB
:100CF00001E4F09005AFE4F090620F7403F0E0A21D
:100D0000E750FB90620BE0D2E1F0D083D08222C0AA
:100D100082C08390059D7402F0A3E4F09005A4F0D6
:100D20007903120F5E75210075220080DD74F612C2
:100D300017BA90620EE0FEE4F0906211E0F50AA2AC
:100D4000E4501D7480F09005A47407F0E52145225D
:100D50006009852182852283121C1B9005A4E4F082
:100D6000E50AA2E2500B906211E4F09005A4F08035
:100D7000769005A4E064027057906216E0FF90053B
:100D8000B1121A66EFF97A207B62120F9674031281
:100D90001B088F089005B4120F33120F3EE0F8A322
:100DA000E0F9E8496004744080027448906211F0F0
:100DB000E8497014E5214522600985218285228356
:100DC000121C1B9005A4E4F0EE90620EF0020FDC02
:100DD000E064067009852182852283121C1B900520
:100DE000A4E06003020ECDE50AA2E050DB7508B670
:100DF000750905750A007808121B6779087A207B47
:100E000062120F967403121B087521007522009060
:100E100005B6E054E0601C24E07003020EA724E055
:100E2000606F24C0604524E07003020EB224E060CD
:100E30006B8030A3E014601C24FE601324FE600A63
:100E400024FC601524FE60168019120320806C12A9
:100E50000314806712030880621206E2805D1208A4
:100E60000B80589005A47404F08058A3E0600E2411
:100E7000FA600F24FE601024FE601180E61201501B
:100E8000803912036A80341206B2802F1207AE80B6
:100E90002A7521A37522171217A3801F7521A57526
:100EA00022171217A58014752140752217121740BA
:100EB000800975216E75221712176E9005A4E064E3
:100EC000047004746080027440906211F09005A474
:100ED000E06401704A750A029005B4C3E09420A34F
:100EE000E09400500A9005B4E0FF750A0A80027F82
:100EF000209005B1121A66EFF97A207B62120FBAC0
:100F00007403121B088F08120F3E120F33E50A906C
:100F10006211F0EFC394204003020DC8020DB4E04B
:100F200064056003020DC8852182852283121C1B83
:100F3000020DC8C3E09508F0A3E09400F0229005EC
:100F4000B1E0F9A3E0FAA3E0FBE92508F9EA3400EF
:100F5000FA9005B1E9F0A3EAF0A3EBF0A32274F74D
:100F60001217BA7800880874A52508F5827405124E
:100F70000F8A40F17800880874AA2508F582740564
:100F8000120F8A40F17F02021A263400F583E9F03D
:100F900008E8C394052274F61217BAEAFCEBFDE9DF
:100FA000F8740A121C09120FEC600D8C828D83E01C
:100FB000121B3B120FE170F3802274F61217BAEA8B
:100FC000FCEBFDE9F8740A121C09120FEC600D121B
:100FD0001AEE8C828D83F0120FE170F37F03021AF8
:100FE00026E9240109EA3400FA18E822E0F508A30A
:100FF000E0F509A3E0A908AA09FBE822C082C083A2
:10100000A823E8540460097823E654FBF6120D0F78
:10101000A823E8541060097823E654EFF6120D2D4A
:10102000A823E8A2E05005782354FCF690620EE075
:10103000FA7404F0906214E0A2E05042E5A8F8C20D
:10104000AF906216E0F9A3E0E9FBE8A2E792AF8077
:101050001F906228E0C0E0900391E0F8749228F5B8
:101060008274033400F583D0E0F0900391E004F043
:10107000EBFC74FF2C1B0470D8906214E4F0EA902F
:10108000620EF0E0FD7404F0906211E0A2E0403BDB
:10109000900493E0F8900492E068602F7A40900406
:1010A00092E0F8749428F58274043400F583E0909B
:1010B0006228F0900492E004F008900493E06860E5
:1010C000041AEA70D99062117401F0ED90620EF08A
:1010D000D083D0822274F81217BAE9FE7900801FFB
:1010E000900390E0FC74922CF58274033400F58335
:1010F000E08A828B83F0900390E0041211480990FB
:101100000390E0F8900391E0686005E9C39E40D049
:101110007F01021A26C082C08380228A828B83E0EC
:10112000C0E0900493E0FC74942CF58274043400C5
:10113000F583D0E0121148900493E004F0E9F874CC
:10114000FF28190470D58088F08A828B83A3AA8235
:10115000AB832212120112098FE9603112127AE96F
:10116000602B75AC00759A0053F4FEC29043FE01EB
:1011700090620FE4F0E0A2E740FB90000174CDF034
:10118000022000C2AF75C9AB75C95B80FE9005D463
:10119000780C121BD5794E1211EBD2AF850D099048
:1011A00005CC780C121BA4E5095440600AA28050BB
:1011B00004C2808002D280120FFC120885E960DC34
:1011C000C280D2919005D87808121BD5120FFC90DE
:1011D00005DC7808121BA4E5084509450A450B7093
:1011E000EBC2AF75C9AB75C95B80FE781075B60FE1
:1011F000E5B4A2E750FAE5BBC39940F118E870EDF9
:1012000022C082C08353BEFBE59DA2E650FA00785F
:10121000F8790100E824FF18E934FFF9E84970F390
:1012200075C6807480659E70FA43BE0490627074C7
:1012300008F0D28043FD01C29143FE02794A1211A7
:10124000EB90000174F5F07403F5D575D488900522
:10125000E0121BFD900594121BF1900598E4F0A399
:10126000F0A37408F0120CCE7AFF7BFF12164F53D6
:10127000F4FED29043FE010210D074F11217BA743A
:10128000FF121B519005E4780C121BD57E00D2AFE3
:101290008004C291C280120FFC79018518828519E1
:1012A00083AA82AB831210D5E96012E064F860343F
:1012B000E0640770089005D4780C121BD5A29250F8
:1012C00023A293501E850C08850D09850E0A850FF3
:1012D0000B9005DC780C121BA4E5084509450A456E
:1012E0000B70130EC2AFD280C291EEF97401121BC3
:1012F000087F08021A26850D09E50954207093D24B
:1013000080D2918091C0E074F2121820900001E028
:1013100064CD7005122033800BE064F57005121661
:101320009A8001007F010218DCD083D08222C08223
:10133000C083E9FCEAFD7A007B00800790059CE011
:1013400012138190059BE0F8A3E0F9900678E0681D
:101350007003A3E069601C1213756C700D90059BFF
:10136000E0FAA3E0FB12138180091213756D70CCB3
:10137000ED60C980B490059CE0F5838882A3E49376
:1013800022F5838882E493F890059BE028F8A3E097
:101390003400F990059BE8F0A3E9F022C082C083F5
:1013A0001213AD7A00790112132E021329900676DA
:1013B000E0F8A3E0F990059BE8F0A3E9F02274F7C8
:1013C0001217BAE9FEEAFF1213AD7A00790212137E
:1013D0002EEA4B601CEE60108A828B83A3A3A3A32A
:1013E000A3E4936E70E48009EFF874FF281F047083
:1013F000D97F02021A2674F51217BAEAFF8B087A0F
:10140000001213BE7A02790412132EEA4B60188A76
:10141000828B83A3A3E4936F70EA8A828B83A3A356
:10142000A3E493650870DD7F04021A2674F712178F
:10143000BA74F0121B51E97A007B00600C14601042
:101440001460141460180215377AF07B0502153702
:101450007AF47B050215377A187B06021537900659
:101460003CE060030215337408121C09AC82AD83A2
:101470007583057582E87408121A93750808F509D2
:101480007808121B6B7402121C09AC82AD837AE8D7
:101490007B07797F12154F7402121B087808121B04
:1014A0006B740A121C09AC82AD837402121C09AA67
:1014B00082AB831219347402121B088B09EA4509A6
:1014C000701D7509007808121B6B7C0C7D78740206
:1014D000121C09AA82AB831219E07402121B087C49
:1014E000287D008D08851882851983E5822508F5F9
:1014F00082E5833400F583E0FF8C08743C2508F80E
:1015000074063400F9EF12153F88828983F0EFC426
:1015100012153FC0E0E824FEF582E934FFF583D0E0
:10152000E0F00D74FC2CFCEDC3940840B690063C32
:10153000742AF07A3C7B067410121B080213F154D3
:101540000FFA74662AF58274063400F583E022747B
:10155000F51217BA8908740B121C09E0FEA3E0FF0C
:10156000740F5508F50A750B00740B780A121B915D
:10157000EA2400F8EB3480F9E82400E9350BF9E5BA
:10158000C7F509A2AFE433F50AC2AFE508C4540FAA
:10159000FAE5C754F84AF5C7801C88828983E08C35
:1015A000828D83F088828983A3A882A9838C828D0F
:1015B00083A3AC82AD83EEFAEFFBEA24FF1EEB348B
:1015C000FFFFEA4B70D48509C7E50AA2E092AF7F1E
:1015D00004021A2674F71217BA7409121C09E0F5EE
:1015E00008A3E0F509ED900388F0ECA3F0A3746282
:1015F000F0A37473F0A3E0541FF0E508333354FCF8
:10160000A3F074067808121BB7E50890038CF090DD
:10161000038E7412F0A37442F075D1FE75D601EA00
:10162000906271F0EBA3F0906270E0D2E1F0E0A282
:10163000E740FB7F02021A26C082C083E9C33390D1
:101640006272F0906270E0D2E0F0D083D0822274B7
:10165000F71217BA7523007524007525008A268BAA
:1016600027EA90620BF08A088B0974047808121B31
:10167000B7E508906207F08A088B097409780812A8
:101680001BB7E508543E906209F0758B00C2E84331
:10169000AC20439A027F02021A2674F71217BAE5A9
:1016A0009DA2E650FA906206E0FAA2E25035A82622
:1016B000E890620BF0F50885270974047808121B7E
:1016C000B7E508906207F085260885270974097830
:1016D00008121BB7E508543E906209F0906201E0E1
:1016E000D2E0F07823EA46F6906202E0F508750948
:1016F0000074047808121B917823E50846F608E583
:101700000946F6906204E0F5087509007409780846
:10171000121B917824E50946F6EAA2E050037525EC
:101720000174065A6003752500E58BA2E550067525
:101730008BDF7525001217B9758B00C2E80216956C
:10174000C082C0839005B7E06422700A9005A4E0CF
:10175000701A74028015E064209005A4700BE0708C
:101760000B1217959005A480E97404F08043C082A1
:10177000C0839005B7E064219005A47013E0701356
:10178000121795A37407F0A3E4F09005A404800257
:101790007404F0801C9005B17494F0A37405F0A358
:1017A000E4F02280028000C082C0839005A474040B
:1017B000F0D083D0822280EF22222518C582C0E09B
:1017C000E51934FFC583C0E0E518C3958224F910FC
:1017D000AF0885831985821880088583198582184A
:1017E000D2AFCEF0A3E520F0A37808E608F0A3DEA0
:1017F000FAEFF0A3E58124FBF8E608F0A3E608F091
:10180000A30808E608F0A3E608F0A315811581D027
:10181000E0FED0E0F815811581E8C0E0EEC0E022DE
:10182000C0D02518C582C0E0E51934FFC583C0E0EB
:10183000E518C3958224F310AF08858319858218B3
:101840008008858319858218D2AFC8F0A3E9F0A378
:10185000EAF0A3EBF0A37908E709F0A3D8FAECF0DB
:10186000A3EDF0A3EEF0A3EFF0A3D0E0F0A3D0E05F
:10187000F0A3D0E0F0A3E520F0A3E5F0F0A322125E
:10188000010002020000205104A816090001020311
:10189000010902430002010080190904000001024D
:1018A00002010005240010010424020205240600A0
:1018B00001052401000107058203400040090401DD
:1018C00000020A000000070584024000000705042A
:1018D000024000009A180000BD1800008519838599
:1018E0001882E0C0E0A3E0F9A3E0FAA3E0FBA3784C
:1018F00008E0F608A3DFFAE0FCA3E0FDA3E0FEA306
:10190000E0FFA3E0C0E0A3E0C0E0A3E0F5D0A3E0E7
:10191000F520A3E0A3F5F010AF08858319858218A0
:101920008008858319858218D2AFD082D083D0E019
:10193000F8D0E03274F81217BA7408121C09E0F8F3
:10194000A3E08015A3AA82AB838C828D83A3AC8293
:10195000AD83E824FF18E934FFF9E84960238A825F
:101960008B83E0FE8C828D83E06E8A828B8360D4D1
:10197000E0F88C828D83E0FAE8C39AFA95E0FB8068
:10198000047A007B007F01021A26121C18B900039A
:101990000219DAE479217807B800028004F709D83F
:1019A000FCE490030278BF79038002F0A3D8FCD94D
:1019B000FA9005C0AA82AB8390008E78C37901802B
:1019C00015E493A3AC82AD838A828B83F0A3AA82B1
:1019D000AB838C828D83D8E9D9E7121153121C1383
:1019E00074F71217BA7409121C09E0FEA3E0FFEAAB
:1019F000F8EBF980188C828D83E088828983F0A3CC
:101A0000A882A9838C828D83A3AC82AD838E088F3C
:101A100009E50824FF1EE50934FFFFE508450970C4
:101A2000D47F02021A26851983851882E0A3FEE07E
:101A3000A3F5207808E0A3F608DFFAE0A3FFE0A30F
:101A4000C0E0E0A3C0E0E0A3C0E0E0A3C0E010AFCE
:101A5000088582188583198008858218858319D2A4
:101A6000AFD083D0822274038000CCC0E0EDC0E010
:101A7000E518C39CCCAD1950011D10AF068C188D14
:101A80001980068C188D19D2AF121A93D0E0FDD0B0
:101A9000E0FC22CAC0E0E0A3C582CCC582C583CDEC
:101AA000C583F0A3C582CCC582C583CDC583DAE6E4
:101AB000D0E0CA22C008C3E096F50808A3E0964229
:101AC0000808A3E096420808A3E09645087001D3F1
:101AD000D008222518F58210AF08F5184002151914
:101AE0008008F51840021519D2AF85198322BB0171
:101AF00002E722C082C08389828A83BB0003E08020
:101B000002E493D083D08222C0D0251810AF08F50C
:101B100018500205198008F51850020519D2AFD0E7
:101B2000D0226016080808C6C313C618C613C61804
:101B3000C613C618C613C6D5E0EA22BB000EC08283
:101B4000C0838A838982F0D083D08222BB0101F7CF
:101B500022251810AF08F518400215198008F5184D
:101B600040021519D2AF227403800474028000C0B1
:101B7000E0F404121AD3D0E0121BE422E0667010E5
:101B800008A3E066700A08A3E066700408A3E06694
:101B900022700422600D18C6C333C608C633C6D5EA
:101BA000E0F41822E026F608A3E036F608A3E036B3
:101BB000F608A3E036F622600C08C6C313C618C6A2
:101BC00013C6D5E0F42275D00075814075180275F2
:101BD000190302198AE0F608A3E0F608A3E0F60864
:101BE000A3E0F622CAC0E0E6F0A308DAFAD0E0FAF1
:101BF00022EAF0A3EBF0A3ECF0A3EDF022E0FAA3CD
:101C0000E0FBA3E0FCA3E0FD222518F582E43519F2
:101C1000F5832200000080FB790122E473FFFFFFBF
:101C2000FFFFFFFFFFFFFFFFFFFFFFFFFFFFFFFFC4
:101C3000FFFFFFFFFFFFFFFFFFFFFFFFFFFFFFFFB4
:101C4000FFFFFFFFFFFFFFFFFFFFFFFFFFFFFFFFA4
:101C5000FFFFFFFFFFFFFFFFFFFFFFFFFFFFFFFF94
:10200000022C4A022220FFFFFFFFFFFFFFFFFFFF1E
:10201000FFFFFFFFFFFFFFFFFFFFFFFFFFFFFFFFD0
:10202000FFFFFFFFFFFFFFFFFFFFFF0229EEFFFFA4
:10203000FFFFFF022243FFFFFFFFFFFFFFFFFFFF46
:10204000FFFFFFFFFFFFFFFFFFFFFFFFFFFFFFFFA0
:10205000FFFFFF02214EFFFFFFFFFFFFFFFFFFFF1C
:10206000FFFFFFFFFFFFFFFFFFFFFF022908FFFF4A
:10207000FFFFFFFFFFFFFFFFFFFFFF022799FFFFAB
:10208000FFFFFF0221B501FFFFFFFFFFFFFFFFFF83
:10209000102010200101FF01010503010F10FEFFB8
:1020A000C636C636C636C63670356A35C6365B4B5A
:1020B00000000000BD4B000000000C0000000C0000
:1020C000010000603900000000B238BC49FA38F65F
:1020D000390000E8380000FF010100180700000087
:1020E000E8039007E80364006400B80102020008F6
:1020F00000000502070101051E02051E020A0A036F
:10210000B80B02803E010201FFFF0A01E096511860
:1021100000020206FFFF00035F005F00300058006E
:1021200000000000000000000000000000000000AF
:10213000000000000000000000000000000000009F
:10214000BB2510261026102610261826E803C0E00E
:1021500074F212255CA2AFE433FED2AFE5A7FFE52F
:10216000A1F5085F5410600612434475A1EFE5081D
:102170005F5408600812434A75A1F7802BEFA2E074
:10218000C0D0E508A2E092F0122BD3158182F05066
:1021900017906198E0F8900A93E0C398A2D265D0B6
:1021A000335002E8F075A1FE751A00EEA2E092AF7E
:1021B0007F01022618C0E074F212255CA2AFE4335E
:1021C000FED2AF9061A4E0F8759B00E591585408E9
:1021D00060087591F7124392802AE5915854106077
:1021E000087591EF124398801BE8A2E0C0D0E591FA
:1021F000A2E092F0122BD3158182F05007E0C2E0EA
:10220000F01244EE9061A3E0F8E5E9585404600E42
:102210001244C475E9FB906193E0A2E640F2808825
:10222000C0E074F212255CA2AFE433FED2AF90613D
:10223000A5E0F8E5BF585404600675BFFB124506DB
:102240000221A8C0E074F112255CE59DA2E650FAD7
:10225000906206E0FAA2E25035A82CE890620BF0FA
:10226000F508852D0974047808122C69E508906238
:1022700007F0852C08852D0974097808122C69E56A
:1022800008543E906209F0906201E0D2E0F07829B3
:10229000EA46F6906202E0F50875090074047808D1
:1022A000122B877829E50846F608E50946F690627C
:1022B00004E0F50875090074097808122B87782A5C
:1022C000E50946F6EAA2E05003752B0174065A6050
:1022D00003752B00E58BA2E55006758BDF752B008F
:1022E0001246AA758B00C2E87F02022618C3E49842
:1022F000F8E499F912232E8026C3E49AFAE49BFBB2
:10230000E920E7E912232EE498F8E499F922C3E4DE
:1023100098F8E499F912232EE498F8E499F9C3E4C3
:102320009AFAE49BFB22EB20E7CFE920E7E0B90033
:1023300010BB0008E88AF084F8AAF022E4FBC8FA8F
:1023400022EB70227B10C833C8C933C9335007C38E
:102350009AC3DBF280069A50012ADBEAC833F4C83C
:10236000C933F4C9FA2275F008E4C833C8C933C9BF
:1023700033C99AC99B5004C92AC93BD5F0ECFBC8A4
:1023800033F4C8E4C9FA22080808EAC0E0EBC0E068
:1023900086F0E7A4FA180986F0E7A42AFA18098655
:1023A000F0E7A42AFA180986F0E7A42AFA1986F0B9
:1023B000E7A4FBE5F02AFA190886F0E7A42BFBE571
:1023C000F03AFA190886F0E7A42BFBE5F03AFA1880
:1023D000180986F0E7A4C5F02BFBE43AFA1908E7E0
:1023E000C5F0C6A426F6E5F03BFBE43AFA1886F001
:1023F000E7A4F6E5F00826F6E43B08F6E43A08F62A
:10240000D0E0FBD0E0FA22122CACB9000302246A1F
:10241000E47921780DB800028004F709D8FCE49033
:1024200004D17824790D8002F0A3D8FCD9FA781A67
:102430009020867A01BA00028007E493A3F608DAB6
:10244000F99010F4AA82AB8390209478BB79018034
:1024500015E493A3AC82AD838A828B83F0A3AA8216
:10246000AB838C828D83D8E9D9E77582B07583C43C
:1024700074051229D07582C275834974001229D05F
:10248000E4CFC0E0E4CEC0E0E4CDC0E0E4CCC0E006
:1024900075F020C3E633F608E633F608E633F608AF
:1024A000E633F6181818EC33FCED33FDEE33FEEF8F
:1024B00033FFC3EC9709ED9709EE9709EF971919C8
:1024C00019400FFFEC97FC09ED97FD09EE97FE19F7
:1024D0001906D5F0BEECF709EDF709EEF709EFF7AD
:1024E000191919D0E0FCD0E0FDD0E0FED0E0FF22C9
:1024F0002518C582C0E0E51934FFC583C0E0E518A2
:10250000C3958224F810AF08858319858218800846
:10251000858319858218D2AFCEF0A3E520F0A37889
:1025200008E608F0A3DEFAEFF0A3E58124FAF8E666
:1025300008F0A3E608F0A3E608F0A30808E608F010
:10254000A3E608F0A315811581D0E0FED0E0F815D0
:102550008115811581E8C0E0EEC0E022C0D02518C9
:10256000C582C0E0E51934FFC583C0E0E518C39516
:102570008224F310AF08858319858218800885832B
:1025800019858218D2AFC8F0A3E9F0A3EAF0A3EB53
:10259000F0A37908E709F0A3D8FAECF0A3EDF0A3D3
:1025A000EEF0A3EFF0A3D0E0F0A3D0E0F0A3D0E0F2
:1025B000F0A3E520F0A3E5F0F0A32212010002024F
:1025C0000000205104A8160900010203010902437A
:1025D0000002010080190904000001020201000547
:1025E0002400100104240202052406000105240130
:1025F00000010705820340004009040100020A00AF
:1026000000000705840240000007050402400000A6
:10261000D6250000F9250000851983851882E0C0C1
:10262000E0A3E0F9A3E0FAA3E0FBA37808E0F60852
:10263000A3DFFAE0FCA3E0FDA3E0FEA3E0FFA3E03C
:10264000C0E0A3E0C0E0A3E0F5D0A3E0F520A3E064
:10265000A3F5F010AF08858319858218800885835B
:1026600019858218D2AFD082D083D0E0F8D0E03282
:1026700075F0108E218F228582268583258518820C
:10268000851983E0CEA3E0CF852682852583EBC91B
:10269000EAC8EDCBECCAC3E833C8E933C9EA33CAA8
:1026A000EB33CBC3EA9EF524EB9FF523B35004AB89
:1026B00023AA24EC33CCED33CDD5F0DAAE21AF2212
:1026C00022D083D082ECC0E0EDC0E0E493A3FCE430
:1026D00093A3FDED4C600D1227DCEC24FFFCED34E0
:1026E000FFFD80EFE493A3FCE493A3FDED4C600DAC
:1026F0001228B3EC24FFFCED34FFFD80EFD0E0FDA9
:10270000D0E0FCE493A3C0E0E493C0E022D083D007
:1027100082E9C0E0E493A3C386F0C5F095F0F90820
:10272000E493A386F0C5F095F0700BE493A3C399EE
:102730004005E9048002A3E475F002A42582F58235
:10274000E5F03583F583D0E0F9E493A3C0E0E493AA
:10275000C0E022851983851882E0A3FEE0A3F5205E
:102760007808E0A3F608DFFAE0A3FFE0A3C0E0E00A
:10277000A3C0E0E0A3C0E0E0A3C0E0E0A3C0E0109D
:10278000AF0885821885831980088582188583198A
:10279000D2AFD083D0820229D6C0E074F212255C79
:1027A000A2AFE433FED2AFE58AA2E250079008530D
:1027B000E0D2E0F0E58AA2E35007900853E0D2E1CE
:1027C000F0758A00C2EB7A017B0090084FE0F912A5
:1027D0003BDCEEA2E092AF7F01022618C0E0C3E42A
:1027E0009396087401939618400FE4936670080856
:1027F000740193661870007019A3A3C3E49396083C
:102800007401939618A3A3400DD0E0D0E0D0E0026D
:1028100026FDA3A3A3A3A3A3D0E022D083D082C587
:10282000F0E493A3C5F0C395F0F5F0E493A3C3954A
:10283000F04005E5F0048001E475F002A42582F57E
:1028400082E5F03583F583E493A3C0E0E493C0E030
:1028500022740480087403800474028000CCC0E0F9
:10286000EDC0E0E518C39CCCAD1950011D10AF06BA
:102870008C188D1980068C188D19D2AF122952D060
:10288000E0FDD0E0FC2274028000CCC0E0EDC0E0AE
:10289000E518C39CCCAD1950011D10AF068C188DE6
:1028A0001980068C188D19D2AF122930D0E0FDD0D6
:1028B000E0FC22C0E0C0F088F0E493667008087481
:1028C000019366187000A8F0A3A3700BD0F0D0E0BD
:1028D000D0E0D0E00226FDA3A3D0F0D0E022D08348
:1028E000D082CCC0E0E493A360061229921470FA5F
:1028F000E493A36006122ABB1470FAD0E0FCE493C0
:10290000A3C0E0E493C0E022C0E074F212255C753D
:102910008900C2C59010ECE0700E7A007B10900622
:1029200092E0F9123BDC80031248427F0102261834
:10293000CAC0E0E493A3C582CCC582C583CDC5835C
:10294000F0A3C582CCC582C583CDC583DAE5D0E0CE
:10295000CA22CAC0E0E0A3C582CCC582C583CDC56A
:1029600083F0A3C582CCC582C583CDC583DAE6D00A
:10297000E0CA22C008C3E096F50808A3E096420822
:1029800008A3E096420808A3E09645087001D3D05A
:102990000822C0E0E493A3D39C5010E493A3C39C0B
:1029A000400AD0E0D0E0D0E00228FBA3A3A3D0E00F
:1029B000227009080808226016181818C6C333C602
:1029C00008C633C608C633C608C633C6D5E0EA22F1
:1029D000C09FF59FE473D09F22D083D082C09FE434
:1029E00093C0E0740193C0E0740293F59F22C0E0AD
:1029F000C0D0E8C0E0E5A8D2AFC2C7751A00A2E710
:102A000092AFD0E0F8D0D0D0E0322518F58210AFE8
:102A100008F518400215198008F51840021519D25A
:102A2000AF851983227404800A74038006740280BF
:102A3000027401C0E0F404122A0AD0E0122C8722AA
:102A4000C0D0251810AF08F518500205198008F5F8
:102A50001850020519D2AFD0D022BB0102E722C024
:102A600082C08389828A83BB0003E08002E493D022
:102A700083D082226016080808C6C313C618C6137E
:102A8000C618C613C618C613C6D5E0EA22C3E0C6E8
:102A900096F608A3E0C696F608A3E0C696F608A345
:102AA000E0C696F622BB000EC082C0838A8389826C
:102AB000F0D083D08222BB0101F722C0E0E493A3CF
:102AC0006C7009D0E0D0E0D0E00228FBA3A3D0E0F6
:102AD00022251810AF08F518400215198008F518BE
:102AE00040021519D2AF22E066701008A3E06670AC
:102AF0000A08A3E066700408A3E06622E766701087
:102B00000809E766700A0809E76670040809E766BD
:102B100022C3E09608A3E09608A3E09608A3E096F7
:102B2000A2D265D03322C3E096F008A3E096F00865
:102B3000A3E096F008A3E096F022C3E697F6080912
:102B4000E697F60809E697F60809E697F622E026E2
:102B5000F008A3E036F008A3E036F008A3E036F072
:102B600022E627F60809E637F60809E637F60809E7
:102B7000E637F622E056F608A3E056F608A3E0563C
:102B8000F608A3E056F622700422600D18C6C3337F
:102B9000C608C633C6D5E0F41822E647F60809E6AB
:102BA00047F60809E647F60809E647F622E026F662
:102BB00008A3E036F608A3E036F608A3E036F622CE
:102BC000E056F008A3E056F008A3E056F008A3E0B2
:102BD00056F022C0E0E8C0E0E58124FCF8E6A2E778
:102BE000D0E0F8D0E022E657F60809E657F60809E3
:102BF000E657F60809E657F622E4C396F608E49687
:102C0000F608E496F608E496F622C3E09608A3E0F8
:102C10009608A3E09608A3E09622C6F4C608C6F478
:102C2000C608C6F4C608C6F4C622600D08C6A2E7E8
:102C300013C618C613C6D5E0F322C3E7960809E702
:102C4000960809E7960809E7962275D00075814035
:102C50007518D175190400022407E0F608A3E0F600
:102C600008A3E0F608A3E0F622600C08C6C313C66A
:102C700018C613C6D5E0F422E6F008A3E6F008A3D0
:102C8000E6F008A3E6F022CAC0E0E6F0A308DAFA0C
:102C9000D0E0FA22E0FAA3E0FBA3E0FCA3E0FD22EF
:102CA000EAF0A3EBF0A3ECF0A3EDF022E5C754F8B3
:102CB0004401F5C77901222518F582E43519F58319
:102CC00022C2AF75D69F020000221229D92CA6037A
:102CD0001229D985A6031229D9FEA6031229D95192
:102CE000A9031229D90BAB031229D9B7AB031229B7
:102CF000D9FEAC031229D99CAF031229D9A2B20381
:102D00001229D9AFB2031229D93DB3031229D9EF41
:102D1000B3031229D937B4031229D997B40312295E
:102D2000D9B3B4031229D9E7B4031229D91CB503C6
:102D30001229D905B6031229D9BAB6031229D90F17
:102D4000B9031229D95CBA031229D9FFBA0312298F
:102D5000D98CBB031229D916BC031229D955BC033F
:102D60001229D9EABD031229D91EBE031229D99905
:102D7000BE031229D973BF031229D93AC0031229FD
:102D8000D952C0031229D9E9C0031229D95AC30361
:102D90001229D96FC5031229D98DC5031229D9B4B7
:102DA000C5031229D90080021229D93580021229BF
:102DB000D95B80021229D99580021229D9A78002F5
:102DC0001229D9F980021229D95A81021229D9E48B
:102DD00081021229D98882021229D9D082021229AD
:102DE000D90A83021229D92783021229D94C8302D6
:102DF0001229D99E83021229D9B783021229D9DD5B
:102E000083021229D91884021229D95C840212295A
:102E1000D98384021229D9D484021229D984850243
:102E20001229D93C86021229D90487021229D9C451
:102E300087021229D90888021229D92D880212295D
:102E4000D97088021229D9BD88021229D9158A029F
:102E50001229D99B8A021229D9B98A021229D9E3E7
:102E60008A021229D9FD8A021229D90C8B02122951
:102E7000D9178B021229D9D78B021229D9308C028B
:102E80001229D9F28C021229D9FA8C021229D9728C
:102E90008D021229D9C18D021229D9078E02122959
:102EA000D9488E021229D9D88F021229D9909002BE
:102EB0001229D9FC90021229D92792021229D94C41
:102EC00092021229D95D92021229D9D392021229B3
:102ED000D96593021229D9BD93021229D97D940292
:102EE0001229D99C94021229D9AB95021229D9C969
:102EF00095021229D9DB95021229D92E96021229A0
:102F0000D93D96021229D9C596021229D9029702F3
:102F10001229D90F97021229D99298021229D9F1B0
:102F200099021229D90A9A021229D9539B0212290D
:102F3000D9E49B021229D91B9D021229D9549D0262
:102F40001229D9A09D021229D9BC9E021229D905A5
:102F5000A1021229D910A1021229D91BA1021229FA
:102F6000D926A1021229D930A1021229D93BA102E6
:102F70001229D955A1021229D95FA1021229D969B2
:102F8000A1021229D974A1021229D97FA102122902
:102F9000D9A7A1021229D902A2021229D90CA20290
:102FA0001229D930A2021229D954A2021229D9B267
:102FB000A2021229D9F6A2021229D912A3021229B9
:102FC000D989A3021229D9C1A3021229D90DA402B9
:102FD0001229D96AA4021229D924A5021229D908D2
:102FE000A7021229D961A7021229D991A802122990
:102FF000D9B7A8021229D940AA021229D9BCAD0218
:103000001229D98EAF021229D957B1021229D90437
:10301000B2021229D96FB3021229D90EB4021229B1
:10302000D95BB4021229D9C5B4021229D9D4B40289
:103030001229D95BB7021229D989B8021229D91BE2
:10304000BA021229D988BA021229D967BB021229F9
:10305000D980BC021229D9FDBD021229D91CBE0299
:103060001229D971BE021229D976BF021229D99E1E
:10307000BF021229D9F6BF021229D9D5C0021229DE
:10308000D919C1021229D964C1021229D9CFC102AA
:103090001229D910C3021229D974C3021229D9C224
:1030A000C4021229D922C7021229D953C7021229F0
:1030B000D90BC9021229D960C9021229D972CA02D0
:1030C0001229D90FCB021229D968CB021229D91B98
:1030D000CC021229D9BDCC021229D95DCD02122908
:1030E000D902CE021229D93581011229D97E810156
:1030F0001229D9F683011229D93584011229D97FE1
:1031000084011229D9BD85011229D91C86011229F1
:10311000D95086011229D98E86011229D901880138
:103120001229D9C48A011229D9F78B011229D98D04
:103130008C011229D9E495011229D97E9601122910
:10314000D96599011229D97F9A011229D9E09A01EA
:103150001229D9FC9B011229D9429D011229D92497
:103160009E011229D909A0011229D91AA2011229F6
:10317000D988A2011229D95AA3011229D911A4016F
:103180001229D91BA4011229D94AA4011229D9074D
:10319000A5011229D9DEA5011229D9A5A601122956
:1031A000D940A7011229D9AAA7011229D9C8A70174
:1031B0001229D9F1A7011229D913A8011229D9631B
:1031C000AA011229D93BAB011229D97FAB011229DF
:1031D000D9E7AB011229D99FAC011229D9D1AC0191
:1031E0001229D915AD011229D94BAD011229D99750
:1031F000AD011229D9ECAD011229D9F1AD01122985
:10320000D944AE011229D969AE011229D979AF0189
:103210001229D9F1AF011229D94DB0011229D9D9FA
:10322000B0011229D9C8B3011229D9ABB4011229AE
:10323000D942B6011229D978B8011229D926B90183
:103240001229D9D7B9011229D919BC011229D9BC1F
:10325000BC011229D903BD011229D9AFBE0112291F
:10326000D9C3BE011229D9CDBE011229D9F5BE019B
:103270001229D901BF011229D920BF011229D96A07
:10328000C1011229D99FC1011229D9A9C10112294D
:10329000D9B3C1011229D90EC2011229D96AC201BA
:1032A0001229D97EC3011229D9DFC3011229D92ECF
:1032B000C5011229D972C5011229D91AC6011229CC
:1032C000D9FDC6011229D9A8C7011229D9F4C8010C
:1032D0001229D9F2C9011229D998CA011229D9286B
:1032E000CB011229D93FCB011229D976CB01122962
:1032F000D980CB011229D98ACB011229D995CB01CA
:103300001229D9B3CB011229D9F7CB011229D954EB
:10331000CC011229D979CC011229D993CC011229D7
:10332000D925CD011229D94FCE011229D9C6CE01F6
:103330001229D9ADCF011229D9E3CF011229D957CA
:10334000D0011229D9D1D0011229D9D5D101122900
:10335000D9CBD2011229D980D3011229D993D40112
:103360001229D92FD5011229D9BCD5011229D99AF0
:10337000D6011229D9D2D6011229D92AD701122968
:10338000D9F3D7011229D914D8011229D99BD80110
:103390001229D9BFD8011229D9E1D8011229D92A75
:1033A000D9011229D940DB011229D927DC011229C0
:1033B000D9D2DC011229D90FDF011229D95FDF012F
:1033C0001229D99FDF011229D9E1DF011229D93B46
:1033D000E0011229D969E0011229D98DE0011229F1
:1033E000D9E0E0011229D90EE1011229D947E10102
:1033F0001229D9A6E1011229D913E2011229D962B1
:10340000E3011229D985E5011229D9EEE501122936
:10341000D917E6011229D9A2E6011229D90EE7012E
:103420001229D959E7011229D97DE7011229D9A119
:10343000E7011229D9FDE7011229D918E80112295B
:10344000D9D1E8011229D90BE9011229D91CE504C7
:103450001229D954E5041229D975E5041229D9B7DE
:10346000E5041229D91DE6041229D927E6041229F8
:10347000D937E6041229D96CE6041229D9B5E90432
:103480001229D95FEB041229D95FED041229D94E14
:10349000C6031229D994C6031229D974C703122965
:1034A000D976C8031229D979C9031229D905CB03C2
:1034B0001229D963CB031229D920CC031229D93E72
:1034C000CD031229D9AFCD031229D9EBCD0312298F
:1034D000D939CE031229D943CE031229D987CE0375
:1034E0001229D9E3CE031229D97ECF031229D9FBA1
:1034F000CF031229D9CAD0031229D963D1031229C3
:10350000D983D1031229D9B9D1031229D9EAD10318
:103510001229D9ABD2031229D9BBD2031229D90F50
:10352000D3031229D92AD3031229D93CD303122950
:10353000D945D3031229D99FD3031229D9FBD30329
:103540001229D947D4031229D962D4031229D99355
:10355000D4031229D9B0D4031229D9BCD403122917
:10356000D930D6031229D949D6031229D9B0D603A6
:103570001229D9C3D6031229D9D1D6031229D98544
:10358000D7031229D969D8031229D96FD90312296F
:10359000D9F9D9031229D903DA031229D970DA0328
:1035A0001229D987DA031229D9B9DA031229D9F2F3
:1035B000DA031229D91CDB031229D97DDB03122976
:1035C000D99DDB031229D9BBDB031229D901DC0306
:1035D0001229D927DD031229D974DD031229D9A3B1
:1035E000DD031229D919DE031229D941DE0312297C
:1035F000D97ADE031229D988DE031229D9E0DE0345
:103600001229D92FDF031229D96EDF031229D99E7F
:10361000DF031229D9CADF031229D9D5DF03122902
:10362000D9F3DF031229D9B5E0031229D9BFE0038A
:103630001229D9FAE0031229D910E1031229D91964
:10364000E1031229D96EE1031229D982E10312297B
:10365000D990E2031229D9A3E2031229D9BAE203CD
:103660001229D9CFE2031229D971E3031229D9F41F
:10367000E3031229D9B2E4031229D9BDE4031229C4
:10368000D9E9E5031229D905E6031229D957E6033A
:103690001229D996E6031229D9ABE6031229D90DCE
:1036A000E7031229D99CE7031229D9E7E703122976
:1036B000D938EA031229D9B6EA031229D92BEB0328
:1036C0001229D94DED031229D965ED031229D968C4
:1036D000ED031229D974ED031229D988ED031229BB
:1036E000D990ED031229D9C3ED031229D973EE0342
:1036F0001229D9E9EE031229D95CEF031229D91056
:10370000F0031229D9C5F0031229D9E4F0031229D4
:10371000D984F1031229D990F1031229D9BBF103FD
:103720001229D9BEF1031229D9EDF1031229D902C8
:10373000F2031229D96CF2031229D994F303122946
:10374000D96CF4031229D9F7F4031229D910F6031E
:103750001229D9CDF6031229D906F7031229D93730
:10376000F7031229D9F5F7031229D925F8031229ED
:10377000D900F9031229D999F9031229D924FA0396
:103780001229D9D5FA031229D958FB031229D98A4B
:10379000FB031229D9CBFB031229D900FC03122900
:1037A000D955CF041229D9BACF041229D9F7CF0499
:1037B0001229D946D0041229D95CD2041229D93F42
:1037C000D4041229D9E6D7041229D97ED8041229A3
:1037D000D9B9D8041229D9DBD8041229D93ED90481
:1037E0001229D972D9041229D99AD9041229D9BD1A
:1037F000D9041229D9F4D9041229D947DA04122993
:10380000D993DA041229D990C3041229D90EC40419
:103810001229D944C4041229D9B0C4041229D923C5
:10382000C6041229D93FC6041229D984C604122914
:10383000D912C7041229D96BC7041229D998C80410
:103840001229D9AAC9041229D907CA041229D9737D
:10385000CA041229D9D4CA041229D915CB041229B1
:10386000D9C2CB041229D9D4CC041229D9FFCC0453
:103870001229D94ACD041229D991CD041229D9236C
:10388000CE041229D9DECE041229D971B805122925
:10389000D982B8051229D9D3B8051229D918B90582
:1038A0001229D9C7B9051229D901BA051229D9E2B5
:1038B000A9041229D977AA041229D925AB041229FF
:1038C000D9B0AB041229D990AE041229D93FB00463
:1038D0001229D9F6B0041229D94BB1041229D92CD6
:1038E000B4041229D9C4B5041229D94EE705122906
:1038F000D976E7051229D96DE8051229D9209B054B
:103900001229D9A59B051229D9BC9B051229D931A9
:103910009C051229D9919C051229D9BA9C05122916
:10392000D9379D051229D9D39D051229D93A9E056B
:103930001229D9A29E051229D9C99E051229D90298
:103940009F051229D9209F051229D9499F051229BF
:10395000D9779F051229D9BD9F051229D923A00522
:103960001229D9CBDA041229D970DB041229D99093
:10397000DB041229D9B0DB041229D9C4DB041229D3
:10398000D91CDC041229D94CDC041229D9CDDD0460
:103990001229D973DE041229D955DF041229D9A6B8
:1039A000DF041229D9E9DF041229D92CE0041229F5
:1039B000D992E0041229D9B3E0041229D93FE104D5
:1039C0001229D970E1041229D9E4E1041229D9920B
:1039D000E3041229D96CE4041229D9AEE4041229B3
:1039E000D908E5041229D961DF051229D96BDF0551
:1039F0001229D98CDF051229D90EB7041229D93A18
:103A0000B9041229D975BA041229D942BC04122961
:103A1000D98FBC041229D948BD041229D989BD0403
:103A20001229D9B9BD041229D950BE041229D9EAE4
:103A3000BE041229D95DBF041229D9D7BF041229A7
:103A4000D9D9BF041229D9DBBF041229D9DDBF049B
:103A50001229D9FABF041229D9FCBF041229D91599
:103A6000C0041229D962C0041229D9D5C004122970
:103A7000D906C1041229D97FC1041229D996C204DA
:103A80001229D90080041229D967A1031229D978F3
:103A900081041229D9A381041229D914820412297C
:103AA000D93882041229D95882041229D9A2820451
:103AB0001229D9CC82041229D9EF83041229D925DD
:103AC00084041229D95484041229D9968404122911
:103AD000D94A85041229D96A85041229D9BF8604D6
:103AE0001229D94187041229D93888041229D9BC4E
:103AF000A5031229D97889041229D9CA890412295F
:103B0000D9FC89041229D95E8A041229D9C98A04E8
:103B10001229D9138B041229D9468C041229D97B76
:103B20008C041229D9DB8C041229D9988D0412290E
:103B3000D9C08D041229D95F8F041229D9CD8F04E1
:103B40001229D90090041229D93C90041229D95580
:103B500090041229D9F590041229D9C2910412298E
:103B6000D96C92041229D90D93041229D9AE930469
:103B70001229D93194041229D9CC94041229D9E6F6
:103B800094051229D93295051229D9A09505122933
:103B9000D9C195051229D9D895051229D988960534
:103BA0001229D99196051229D9E496051229D90D21
:103BB00097051229D97497051229D9059805122954
:103BC000D94798051229D99198051229D9F0980555
:103BD0001229D91C99051229D9AD99051229D9ECB8
:103BE00099051229D92B9A051229D9609A0512290B
:103BF000D9729A051229D9849A051229D9B79A053A
:103C00001229D9F79A051229D987AF051229D95A4D
:103C1000B0051229D974B0051229D985B005122929
:103C2000D99AB2051229D9B9B2051229D9A7E10545
:103C30001229D9DDE1051229D926E2051229D97602
:103C4000E3051229D99495041229D9D3960412298F
:103C5000D90F97041229D9CE98041229D9F79804BC
:103C60001229D98A9B041229D9CE9B041229D9572B
:103C70009D041229D9EF9D041229D9579E041229B7
:103C8000D9F89E041229D93A9F041229D97A9F049F
:103C90001229D905A1041229D975A2041229D99A89
:103CA000A4041229D9C8A4041229D9EFA404122902
:103CB000D9F8A4041229D953A5041229D9E6A504D8
:103CC0001229D904A9041229D985A9041229D99342
:103CD000F2051229D9A9F2051229D9B3F205122940
:103CE000D903F3051229D95EFC031229D971FC030B
:103CF0001229D90EFD031229D94AFD031229D961CF
:103D0000FD031229D986FD031229D9C8FD03122902
:103D1000D9F9FD031229D934FE031229D9AEFF03C4
:103D20001229D9EFFF031229D964EC051229D9B958
:103D3000EC051229D912ED051229D9F5F105122940
:103D4000D937F2051229D979F2051229D989F20554
:103D50001229D9F6E7021229D94EE8021229D9D040
:103D6000E8021229D9D3E9021229D961EA021229FB
:103D7000D933EB021229D948EB021229D992EB026E
:103D80001229D9E1EB021229D92AEC021229D93DD4
:103D9000EC021229D992EC021229D9EBEC02122979
:103DA000D9FFEC021229D9FFEE021229D900F00244
:103DB0001229D93BF0021229D981F0021229D98E99
:103DC000F2021229D91EF3021229D9ABF3021229E9
:103DD000D9BAF3021229D9CDF3021229D91CF4025F
:103DE0001229D932F4021229D949F4021229D978B8
:103DF000F4021229D98AF4021229D928F5021229CB
:103E0000D933F5021229D9BFF5021229D919F602C0
:103E10001229D974F6021229D999F7021229D9BBAD
:103E2000F7021229D949FA021229D97EFA02122977
:103E3000D909FB021229D981FB021229D9A4FB025C
:103E40001229D9E0FB021229D93FFC021229D90F0D
:103E5000FD021229D943FD021229D94DFD02122972
:103E6000D950FD021229D960FD021229D9DDFD02C7
:103E70001229D905FE021229D927FE021229D95387
:103E8000FE021229D98EFE021229D99DFE021229A4
:103E9000D9A8FE021229D9E9FE021229D9FCFE0294
:103EA0001229D923FF021229D998EF051229D9A97D
:103EB000EF051229D931F0051229D94A87051229AF
:103EC000D99987051229D93B89051229D9F78A057D
:103ED0001229D93F8B051229D9278C051229D958C7
:103EE0008D051229D97A8D051229D9D68D05122969
:103EF000D95A8E051229D9274F001229D9554F00BA
:103F00001229D9A050001229D9E750001229D93915
:103F100051001229D9B551001229D91E5200122977
:103F2000D96A52001229D9EC52001229D9925300B1
:103F30001229D91A54001229D95C54001229D9998E
:103F400058001229D91C5A001229D95B5A0012298B
:103F5000D9AC5A001229D9D25D001229D95D5E0070
:103F60001229D93460001229D97661001229D99416
:103F700062001229D90663001229D9D263001229DE
:103F8000D93864001229D94C64001229D90065007F
:103F90001229D93566001229D97368001229D9F37C
:103FA0006A001229D9A86B001229D9C46C00122901
:103FB000D91B70001229D92B70001229D98C7100DD
:103FC0001229D91872001229D94A73001229D9DC92
:103FD00073001229D9D974001229D96675001229E3
:103FE000D94ECE021229D904CF021229D976CF0296
:103FF0001229D985CF021229D9FFCF021229D96EF1
:10400000D0021229D975D1021229D99ED1021229C2
:10401000D93ED2021229D98CD2021229D903D30255
:104020001229D9F5D5021229D9CAD6021229D937AF
:10403000D7021229D9B7D8021229D96BD90212296D
:10404000D919DA021229D974DA021229D9DFDA026F
:104050001229D9DFDB021229D9C7DC021229D90BB8
:10406000DD021229D938DD021229D960DD021229B8
:10407000D995DD021229D91EDE021229D97CDF0270
:104080001229D949E1021229D960E2021229D99DE7
:10409000E3021229D9B0E4021229D949E502122912
:1040A000D9BBE5021229D983E6021229D955E901C3
:1040B0001229D9D4E9011229D939EA011229D98D55
:1040C000EA011229D9CAEA011229D967EB0112299A
:1040D000D9A1EC011229D9ECEC011229D92CED015E
:1040E0001229D97CED011229D9F2EE011229D9A5A4
:1040F000EF011229D9DFEF011229D910F10112299C
:10410000D92CF1011229D979F1011229D943F201EF
:104110001229D971F2011229D99FF2011229D9FA73
:10412000F2011229D921F3011229D9D2F30112295E
:10413000D9E6F3011229D9FDF3011229D927F40197
:104140001229D941F4011229D961F4011229D98720
:10415000F4011229D99EF4011229D99CF5011229E2
:10416000D95EF6011229D935F7011229D996F7013E
:104170001229D9BBF7011229D9E6F7011229D91B57
:10418000F8011229D97EF8011229D9E9F80112297A
:10419000D99FF9011229D9CAFA011229D9A4FB0120
:1041A0001229D96FFC011229D9C8FC011229D9E0C2
:1041B000FC011229D9D6FD011229D991FE0112293B
:1041C000D94FD2051229D98AD2051229D944D3054B
:1041D0001229D9AAD3051229D91BD4051229D9AF7E
:1041E000D4051229D92FC5051229D991C60512293E
:1041F000D98AF0051229D99BF0051229D93BF1057E
:104200001229D9EE7F001229D9EDFF011229D953C5
:10421000FF021229D963FF021229D97BFF0212295A
:10422000D9E8FF021229D996EE051229D91BEF050C
:104230001229D97FEF051229D942FF011229D94548
:10424000FF011229D97EFF011229D9CFFF011229BE
:10425000D9E1FF011229D9E4FF011229D9B6BC0521
:104260001229D9C4BC051229D93EBD051229D9226B
:10427000BE051229D9DBBF051229D940C005122974
:10428000D9A3C0051229D9F87F001229D9D9E3058D
:104290001229D9FBE3051229D92EE5051229D9B235
:1042A000E5051229D945D5051229D9E3D5051229E5
:1042B000D92AD6051229D96DD6051229D930D705A4
:1042C0001229D95CD7051229D993D7051229D9A665
:1042D000D7051229D9BBD7051229D9C4D705122968
:1042E000D9CCAA051229D921AB051229D91DAD05B2
:1042F0001229D94FAD051229D971AD051229D98AD4
:10430000AD051229D9A3AD051229D9ADAE051229E3
:10431000D948AF051229D97BFE041229D99FFE0482
:104320001229D9B8FE041229D9EBFE041229D91C8E
:10433000FF041229D94AFF041229D954FF04122973
:10434000D9B6FF041229D9C5FF041229D9CFFF0419
:104350001229D9DCFF041229D906D8051229D92C33
:10436000D8051229D969D8051229D978D805122972
:10437000D997D8051229D9FFD8051229D908D90506
:104380001229D967D9051229D98BD9051229D94AF9
:10439000DA051229D957DA051229D968DA0512295E
:1043A000D99CF4051229D9B9F4051229D9DAA00546
:1043B0001229D920A1051229D980A2051229D98D47
:1043C000A2051229D9A0A2051229D9BFA205122936
:1043D000D9D5A2051229D9E9A2051229D95EA305CA
:1043E0001229D9C3A3051229D94BA4051229D9D45E
:1043F000A4051229D9A9A5051229D9B9A5051229FB
:10440000D9C8A5051229D95CF1051229D980F10571
:104410001229D9A8F1051229D9D0F1051229D99666
:10442000DA051229D9BDDA051229D9DEDA051229F1
:10443000D943DB051229D9FCDC051229D915DD0584
:104440001229D921DD051229D935DD051229D953C3
:10445000DD051229D95DDD051229D967DD0512298F
:10446000D97ADD051229D9CDDD051229D906DE0557
:104470001229D935DE051229D983DE051229D9D2B0
:10448000DE051229D9EDDE051229D9F7DE0512293C
:10449000D908DF051229D94EDF051229D9ACF30559
:1044A0001229D9FDF3051229D9FE75001229D92840
:1044B00076001229D94476001229D957760012299C
:1044C000D96D76001229D9CA76001229D9FD760055
:1044D0001229D9397B001229D95F7C001229D9927F
:1044E0007C001229D9DE7C001229D90A7E0012290B
:1044F000D9327E001229D9477E001229D9577E0071
:104500001229D99B7E001229D9FC7E001229D90CD0
:104510007F001229D931EB051229D94CEB0512295C
:10452000D975EB051229D98FEB051229D9B4EB0502
:104530001229D9D3EB051229D9EBEB051229D91988
:10454000EC051229D933EC051229D93A7F0012293A
:10455000D9807F001229D969C8051229D970C805E8
:104560001229D97CC9051229D9ACC9051229D9D279
:10457000C9051229D9F5C9051229D917CA05122961
:10458000D951CA051229D9B7CA051229D9F0CA05C5
:104590001229D93CCB051229D969CB051229D98911
:1045A000CB051229D99EE8051229D9C0E8051229A0
:1045B000D9E7E9051229D9EAE9051229D983ED05D8
:1045C0001229D9F5ED051229D933EE051229D9742E
:1045D000EE051229D9ACF6041229D9B2F604122933
:1045E000D9F8F6041229D9E1F8041229D917F904E7
:1045F0001229D971F9041229D953FA041229D99828
:10460000FA041229D9CBFA041229D955FB0412292C
:10461000D96FFB041229D9FBFC041229D9F9FD0436
:104620001229D942FE041229D911EE041229D927E0
:10463000EE041229D9BCEE041229D9B8EF041229CC
:10464000D9BCF0041229D961F1041229D9A5F104C9
:104650001229D922F2041229D983F2041229D993FA
:10466000F2041229D9BAF2041229D90CF30412293E
:10467000D999F4041229D99EF4041229D9C0F4045A
:104680001229D92CF3051229D95AF3051229D98FE9
:10469000F3051229D991F3051229D993F3051229AB
:1046A000D9A4F3051229D9A6F3051229D9A9F3052E
:1046B0001229D9BCE5051229D92AE6051229D94CB7
:1046C000E6051229D984E6051229D9BAE605122988
:1046D000D91FCF051229D962CF051229D980CF055C
:1046E0001229D9B1D1051229D9E9D1051229D90D3B
:1046F000D2051229D909F4051229D90080051229F9
:10470000D9C780051229D9B881051229D9C98105CF
:104710001229D9DA81051229D92682051229D91A36
:1047200084051229D97785051229D9A7850512296B
:10473000D97386051229D9D086051229D9958E05F7
:104740001229D91B8F051229D92191051229D9B710
:1047500091051229D9E291051229D9AE92051229A3
:10476000D92893051229D9C893051229D90F940580
:104770001229D912B4051229D924B5051229D9ABA9
:10478000B6051229D9D6B6051229D999B705122925
:10479000D92EB8051229D9B7C0051229D9DDC0050F
:1047A0001229D92CC1051229D948C1051229D97954
:1047B000C1051229D989C1051229D996C105122925
:1047C000D9A3C1051229D98FC2051229D9CDC20595
:1047D0001229D9D7C2051229D9E4C2051229D9EF65
:1047E000C3051229D901C4051229D90CC4051229FF
:1047F000D91EC4051229D927C4051229D931C405E7
:104800001229D9A6C4051229D901A6051229D9460B
:10481000AA051229D962AA051229D9E9CB051229BC
:10482000D9FFCB051229D982CD051229D9ACCD05E6
:104830001229D9F4CD051229D9F0CE051229D9EDC6
:10484000E9051229D977F4051229D9D8F4051229D6
:10485000D950A1031229D940A1031229D918A003C4
:104860001229D99F9F031229D9FC9E031229D9C569
:104870009C031229D9539C031229D90B9C0312299A
:10488000D9569A031229D9D699031229D9BC99036A
:104890001229D98B99031229D97299031229D9D0D7
:1048A00098031229D9A298031229D91E9803122914
:1048B000D9DE96031229D94396031229D9A6950366
:1048C0001229D99C94031229D94994031229D91782
:1048D00094031229D95493031229D97F91031229E1
:1048E000D91091031229D993A5031229D935A5030B
:1048F0001229D9D3A4031229D957A4031229D9A55F
:10490000A3031229D9E290031229D9DF90031229B7
:10491000D9CC90031229D97590031229D9E3A103A8
:104920001229D95C90031229D9358F031229D9FF96
:104930008E031229D9858E031229D9AFA10312291A
:10494000D90889041229D9508E031229D9F18D036F
:104950001229D9C08D031229D9888A031229D9486E
:104960008A031229D93C8A031229D99C8903122966
:10497000D9DC88031229D94B86031229D9DC830399
:104980001229D99A83031229D96E82031229D923B5
:1049900082031229D95F81031229D9328103122996
:1049A000D96A80031229D9F5FF021229D93A800366
:1049B0001229D97CA1031229D90080031229D926F2
:1049C000800400000080FBE4738F0001002408874E
:1049D00000010023082400020044112500020046C3
:1049E00011260002004811270002004A1128000188
:1049F000004C11290001004D11840004004E118665
:104A000000010052112A00010053112B0001005433
:104A1000112C00010058112D0008000E082E000175
:104A20000059112F0001005A11300001005B1131B3
:104A30000001005C1132000100160833000100176C
:104A400008340001005D113600010018083800012B
:104A5000005E1139000100571183000200681163E4
:104A60000001002208640001005511650001005694
:104A7000116D00010067116E0002000C0843000177
:104A8000005F114400020060114500010062114600
:104A90000002006311470008001A08480001006581
:104AA000114B0001006611040001006A11A1000110
:104AB000006C11370001006B118800010025083CD3
:104AC0000001001908000000000000000136360156
:104AD00001000102010001030100010401060605B5
:104AE000020000070100340801000F090401010D54
:104AF0000100FF0E08000017020000190100FF1A54
:104B00000100011B0100FE1C0100081D0200001F26
:104B100001000120010001210200002301000F24F7
:104B20000200002601000127010008280200FF2AD8
:104B30000100072B0102402C0100002D0100012E75
:104B40000100012F0100FF30010B1C310800003A69
:104B50000100083B01000F2F01000003007100302D
:104B60000160001100700031022003500480001029
:104B700000610000001400630073007200620043D3
:104B800000000013000600000000000400120000F6
:104B90000000000000000004000400370037003C63
:104BA0000244000000000000000000650000003525
:104BB0000081000000050000008300000001037177
:104BC00003010301030103010301032203020301A3
:104BD00003100300030003000300030003000300AD
:104BE000034203000324030603000300030403122B
:104BF0000325032303250323030403040300030005
:104C0000030003440300030003230300036503219F
:104C100000350381030003050300030003000301C3
:104C200001710101010101110101013101010101C4
:104C3000018001100161013B0014006301730172E6
:104C400001620143010001130106013D0135000429
:104C500001120100010001000100010401040133FF
:104C60000133013C014401320136000001000165BD
:104C7000010001350081010001050182018301006D
:104C800001030471040204600411047004020402AC
:104C90000401040204100461040004140463047396
:104CA00004720462044304000413040604000400B4
:104CB0000404041204000400040004000451046409
:104CC0000000040004000444040004000400040084
:104CD00004650400043504810464000504000483B1
:104CE000040004030271023001600211027002012B
:104CF00002020202028002100261023A00410063D5
:104D000002730272026202430200021302380000C0
:104D10000200020402120200020002000200020469
:104D2000020402370037003C02440200023900004E
:104D300002000265020002350281020002050282C1
:104D4000028302000200001A401300903F01001A83
:104D5000400200183F03001E3F0400243F05002AC4
:104D60003F0600363F3000543F31004E3F32006076
:104D70003F3300663F35006C3F3400723F360078A9
:104D80003F1100843F14008A3F1500483FFFFF0099
:104D90000036000100060000000F000000000000C7
:104DA0000000000000000003FFFF00000403FFFFFD
:104DB0000000FFFF0FF4010005C404032000010000
:104DC000000B000000000000000003010F0138315B
:104DD000066E310868310B863110A8300A9E310208
:104DE0003E31055C310744310C1A310D2C31FF0086
:104DF0000003EAF5E5D5D5C5B5A595958585757505
:104E000065655555454535352525151505CA35FAC8
:104E100035D035D635F435E835E235003606360C72
:104E2000361836DC35C435BE3500160F00000B15BC
:104E30000B020002220F320000065A6967426565C4
:104E4000416C6C69616E6365303901030507090BBC
:104E50000D0F00020406080A0C0D000000000000FF
:104E600000008967452301EFCDABC636D836DE3664
:104E70009435E4368E359A353237503756373837D1
:104E800044373E37CE34C83404350A35FE34B634A0
:104E9000303017181921301B1D1F3000011916184A
:104EA000161615230300303016181920231A1C1E5D
:104EB000300C0E020B040B0A0708000F00034948D0
:104EC000424D181725050200383C3E363B3B352B3A
:104ED000432CEE3512364A371E3624361A37EA3658
:104EE000F036FC36F636020402010101010902DA4D
:104EF00034E034D4341035E634F83400BE040A15F6
:104F0000000E0004007F00E8030000000028000CF1
:104F10000008100C0A03080900040009FF1E1E0304
:104F200001040C10080F05C082C083900788E4F0CC
:104F3000A3F07CD57D047A027B071245CC122EB6F5
:104F4000900823E070047900800279011249B612BA
:104F50002EBC02644574F51224F074F5122AD1E9CE
:104F6000FF8A08EBFEEF705E74026508703E9007E2
:104F70001B7408F0750A00780A122A31ECF50A78D9
:104F80000A122A31EEF50A780A122A3190114E12CD
:104F90002851901152E0F97C1A7D08901168126036
:104FA00021122EE07407122A40025077740165081E
:104FB000600302507C90071B7408F07B00EEFAF946
:104FC000122F1C02507774016F600874026F600327
:104FD00002507CEA600674036508705490071B74E5
:104FE00002125096122C94122ECEE9F8900720E06F
:104FF000A2E34019E8701690078CE004F064047096
:105000000C9080E0122C9490114E122CA074036529
:1050100008706690078DE0F9740129F0E9C39405E2
:1050200040579080E0122C9490114E122CA0804991
:1050300074016508704674016F90071B702E740A26
:10504000F07401122CB7E4F07402122CB77403F060
:105050009080E8122C947404122CB7122CA07408BF
:10506000122CB7E4125E4D12314A8020740A12509D
:1050700096122C94122F04E9F8E860107CE87D0366
:105080007A017B00900718E0F9123CFC740B122A9D
:10509000407F03022753F0901152E0F990114E2205
:1050A00074F61224F0E9FFEAFE7AD1F9123BB8EA6D
:1050B0004B702A7A027B00123BA0EA4B700E7A10EA
:1050C0007B00900718E0F9123BDC80188A828B8302
:1050D00074D1F0EFA3F0EEF9123BAC8007EF8A82B7
:1050E0008B83A3F002526574F71224F089089006AE
:1050F0007BE0FEA3E080248E828F83A3A3125D5CFD
:1051000060128E828F83A3A3125866125D5CFAA987
:1051100008123F008E828F83127516FFEE4F70D7F4
:10512000900692E0FAA908123F0012325E9006EA59
:10513000125A5512325802733A74F11224F0890A45
:105140008C08740F122CB712600D7411122CB71248
:10515000584E750900750E00804AE50B125206F58F
:105160000CA3E0F50DE50EC333FEE433FFEA2EF5A4
:1051700082EB3FF583E0650C7004A3E0650D7019C8
:10518000E509C333FEE433FFEC2EF582ED3FF583F2
:10519000E50CF0A3E50DF00509050BE50BC395083B
:1051A00040B8050EE50EC3950A5005750B0080EB5F
:1051B000A90902661F74F41224F0890B740C122CD6
:1051C000B712600D750A008002050AE50AC3950B47
:1051D000502F7D0080010DEDC39C50EDE50AC333D7
:1051E000FEE433FFEA2EF582EB3F125216F509ED8D
:1051F00012520665087004A3E0650970D979018030
:10520000027900026869C333FEE433FFE82EF582B9
:10521000E93FF583E022F583E0F508A3E02274F688
:105220001224F01252AC7003A3E06D701775081EC3
:105230007509077808122A2DEEFA1240207402121E
:105240002A40801A7508027509807808122A2D8C68
:10525000088D097808122A2D1252D8122A4080058A
:105260007402122A407F0202275374F61224F012AD
:1052700052AC7003A3E06D701775082B75090778A1
:1052800008122A2DEEFA1240267402122A40801AC1
:105290007508037509807808122A2D8C088D097805
:1052A00008122A2D1252D8122A4080B9EAFEEBFFCA
:1052B0001252C4FAA3E0F9EA2400FCE439FD900696
:1052C000EAE06C22EE2413F582EF125DB2E0F8A35F
:1052D000E0F988828983E022EE12730FEF12746383
:1052E000FD7C801264ED12404474042274F6122492
:1052F000F074FE122AD1EAFEEBFF8518828519832D
:10530000E4F0A3F012662CFA88828983A3A3E0F963
:105310007509007508006005C394F14005750882A1
:1053200080439006EAE06A7003A3E06B7020851862
:1053300082851983AA82AB831237D4E9F5098518CF
:1053400082851983126AD9701C75088380179008AA
:1053500023E06004640170057508818008E0640240
:10536000700375088085188285198312584EA90824
:10537000EEFAEFFB12402CE50960148518828519BE
:1053800083126AD96009851882851983126B91028C
:10539000526074F21224F0EAFEEBFF750A00750BFE
:1053A0000012540612325EEA65087003EB6509705C
:1053B000121237E6E914F50A79017A547B0712379D
:1053C000EC8003750B801272D7F50C780C122A3121
:1053D000750C54750D07780C122A2D780A122A3193
:1053E0007808122A2DE50BF5087808122A31126286
:1053F000FAF582EF1261727A057B801240327407EF
:10540000122A4002602F1272E5126011888289838D
:10541000127553F508E439F5092274F61224F0E9FF
:10542000FE7F00802F8A828B83125218F9E50824B0
:1054300000E439F509EF33F8E433F9EC28F582EDAF
:1054400039F583E508F0A3E509F0EA24020A0AEB3E
:105450003400FB0FEFC39E40CC02526574E8122467
:10546000F074FB122AD18A168B178518828519834E
:10547000E4F07403122CB7E4F0A3F004122CB7E4A8
:10548000F0127149F50AA3E0F50B850A82F5831243
:10549000754FFEE439FF850A82850B83A3A3E0FAEA
:1054A000850A82850B83A3A3A3E0F9EAF508E43912
:1054B000F509E50A2404F50AE50B3400F50BEEFACC
:1054C000EFFB123300E96401702C126F87122A314E
:1054D000E4F508F5097808122A2D7808122A319087
:1054E00006EA1228597508807808122A3112586E77
:1054F000122A4002583CEEFAEFFB123300E9700C1E
:105500009006EAE06E7003A3E06F70BE12585488F4
:1055100014602EC333FAE433FB123C367403122CAE
:10552000B7125A557403122CB7126AD96013740358
:10553000122CB7125846A914123F308A0A8B0B80DE
:1055400003751400125854880F602AC333FAE433E9
:10555000FB123C367401122CB7125A557401122CEE
:10556000B7126AD9600F7401122CB7125846A90FEE
:10557000123F308003750F0090067B805D850A82A4
:10558000850B83A3A3A3A3A3A3A3A3E4F0A3F0AADF
:105590000AAB0B851282851383A3A3125864125D94
:1055A0005CF9123BAC851082851183E0C0E0851860
:1055B00082851983E0F8745428F5827407127512F5
:1055C000D0E012686E04F0E515A2E05007AA10AB17
:1055D00011123C3C851282851383E0F512A3E0F59D
:1055E00013E512451370030257B4851282851383A5
:1055F000A3A3125D5C60DD851282851383A3A3A340
:10560000A3A3A3A3A3E0A2E050CA851282851383BB
:10561000A3A3A3A3126AD9851282851383A3A360CF
:105620001F125D5CFA7901851282851383A3A3A3FF
:10563000A3125D611249C78A108B11751501800F85
:10564000125864A3A3E0F510A3E0F511751500E569
:1056500010451170030255C7851082851183A3E0A0
:1056600065087004A3E0650960030255C7851082D0
:10567000851183A3A3A3A3A3A3A3122859851082F2
:10568000851183A3A3A3A3A3A3E0FC7405122CB7E5
:10569000126021A914123F127402122A40E9703CD0
:1056A000851082851183A3A3A3A3A3A3A3A3A3A36C
:1056B000122859851082851183A3A3A3A3A3A3A3B2
:1056C000A3A3E0FC7403122CB7126021A90F123FB0
:1056D000127402122A40E970030255C7E50F25141F
:1056E000C333240AFA7B00123BA08A0A8B0BEA45DB
:1056F0000B70030255A58A828B8374D2F0851682C3
:10570000851783A3A312600D8A828B83125E558A4C
:10571000828B83A3A3A3A3E514127559E50FF0E5CB
:10572000146038EA2405FAEB3400FBE50A240AF891
:10573000E50B3400F98A828B83125E577403122CB6
:10574000B712588C122A29E514C333FCE433FD8ABE
:10575000828B83126C8D122A40800D8A828B83A3E8
:10576000A3A3A3A3E4F0A3F0E50F700302557DE526
:1057700014C333F8E433F9E50A28F8E50B39F9E8FE
:10578000240AFAE93400FB850A82850B83A3A3A3CC
:10579000A3A3A3A3A3125A557401122CB712588CB9
:1057A000122A29E50FC333FCE433FD1273B3122A26
:1057B0004002558F851882851983E06027126F8714
:1057C000122A317508547509077808122A2D7403B6
:1057D000122CB7126F91122A319006EA12285975CD
:1057E00008008029EEFAEFFB123300E9702A126FED
:1057F00087122A317508547509077808122A2D7501
:1058000008007808122A319006EA122859780812FE
:105810002A3112586E122A407403122CB7126AD918
:1058200060087403122CB7126B917401122CB7121A
:105830006AD960087401122CB7126B917405122A90
:10584000407F1002275312584EAA0AAB0B22E0FCED
:10585000A3E0FD22850A82850B83E0F8A385820AF6
:1058600085830B22E0F8A3E0F5838882A322E51666
:105870002402FCE5173400FDE51612628FE51712CD
:1058800064FA7A067B80124032740722E0F50CA39A
:10589000E0F50D750E00780C2274F41224F074F407
:1058A000122AD18A088B09ECFEEDFF740B122CB77B
:1058B0007403F0122CB7AA82AB831245CC12325873
:1058C000EAFCEBFD7403122CB7AA82AB831245C627
:1058D000E9600A1259E66010E06401600B851882E5
:1058E000851983748402599E8E828F83A3A3A3A3F8
:1058F000A3A3A3A3E06017C394F150121259E6705A
:1059000018EE24141272DA6005C394F1400B851866
:1059100082851983748202599EE508240CF582E57C
:10592000091272DD64217002A3E0704F8518828530
:105930001983748CF01259D9122A311259F512496F
:105940004A7401122A40E97056851882851983E449
:10595000F0123E821259E670467401122CB7AC82E6
:10596000AD8312748BFB12492CE970337D007C00EF
:10597000790012748BFB123FF080241259D9122A3D
:10598000311259F51249447401122A40E9851882EE
:105990008519837007E4F0123E8280037488F01248
:1059A000730DE5091259DE122A317401122CB785E4
:1059B000820A85830B780A122A2DE508240CF582C9
:1059C000E5091259EC4480F50B780A122A2D12636E
:1059D000B2122A40740C026866EE126001EF127473
:1059E00063F50A780A22125AA7640322125DAEE018
:1059F000F50AA3E022EE240BFCEF3400FD8E828F2B
:105A000083A3A3A3A3A3A3A3A3A31260258E828F22
:105A100083A3A3A3A3A3A3A3A3E0F922C082C0836B
:105A200074F3122AD1851882851983E4F004122CAC
:105A3000B7125A557403122CB7AA82AB83122DF0F9
:105A4000851882851983AA82AB83122E26740D12C3
:105A50002A40026445EAF0A3EBF02274F61224F027
:105A6000125A9712720A900726E058F508A3E059D7
:105A7000F509E5084509601C7808122A2D9006EA08
:105A80001228591272D7FD7C001264E912403E744C
:105A900004122A40025265EAFEEBFF125AA7F8A34D
:105AA000E0F988828983221272E9E02274EA1224E2
:105AB000F074DB122AD18A148B157512007513004D
:105AC000125D56F50E851882851983AC82AD837AF6
:105AD000007B00799C122F2E7A047900122E38EA6E
:105AE000F50C851882851983E0250CF0F8E50EC3C6
:105AF000984003025CDEE0C3950EF509C3940440B0
:105B000003750903E50975F01AA4FAABF0123C36E7
:105B10008A128B13EA45137003025CE1750D00AE27
:105B200012AF13850E08025BB3125D35850A8285BC
:105B30000B83A3A3A3A3E07039850A82850B83128C
:105B40006AD97012125FFA1272D1EE2418F582EF40
:105B5000127512E48016125D4DF090055CE014C0E1
:105B6000E0EE2418F582EF127512D0E0125D9EE48B
:105B7000803E90055CE004C0E0EE2418F582EF1250
:105B80007512D0E0125D96C39403EE4003025C43AD
:105B9000125FFB1275127402125D966401600302BB
:105BA0005C50125D2E127512E4F0EE2416125D5058
:105BB000125D6AE50DC395094003025C74E508C3F4
:105BC000950C4003025C59A908122EAA8A0A8B0B75
:105BD0000508900549125D76850A82850B8312605F
:105BE0000D125D271271FD125DB7850A82850B8348
:105BF000A3A3A3A3A3A3A3A3A3A3E0C0E0EE24199C
:105C0000F582EF127512D0E0F07401122CB7E41295
:105C1000718412600D7402122CB7125E5774011257
:105C20002CB7AA82AB83122E14E964016003025BD5
:105C3000297404122CB7AC82AD83EE240A125D479E
:105C4000025B2C125D4E125D9664037003025BA230
:105C5000EE2415125D50025BA9E50CC3950E4005BC
:105C60007508008016E50EC3950CF508800D125DD1
:105C70004D125D6AE50DC395095066740E122CB77E
:105C8000AC82AD8385080AAA0A7B007987122F2E81
:105C900005087418122CB7125D76125D35EE2412C9
:105CA000F8EF3400F9740E122CB712602188828943
:105CB00083EAF0A3EB125D9E7403125DB7741D12AC
:105CC0002CB7E0C0E0EE2419F582EF127512D0E097
:105CD000126AE97099125FFA127512E480937509DD
:105CE00000750A00780A122A317812122A2D7809D2
:105CF000122A31E50EF5097809122A317405122CA1
:105D0000B7E0FD7C0012627A12407A7405122A40D4
:105D1000E51245136007AA12AB13123C3C7425121E
:105D20002A407F0E022753EE2412F582EF22EE2442
:105D300015F582EF227C087D0079FFEE240AFAEF48
:105D40003400FB123B8822FAEF125D8F22EE2414FE
:105D5000125DAB740122127468125DAE125D61E0D7
:105D600022E0F8A3E0F583888222F0EE241AFEEF09
:105D70003400FF050D221260118E828F83E8F0A39C
:105D8000E9F07C5D7D05EE2402FAEF125D8F22348E
:105D900000FB1245CC2212749EA3A3A3E022F0EED6
:105DA0002415125DC72416125DAB22F582EF125D39
:105DB000B2223400F58322F0EE2417125DC72418B6
:105DC000125DAB74FFF022F582EF125DB27402F047
:105DD000EE2274F61224F074F9122AD18A088B0983
:105DE0001275D1851882851983122CA0125E45C0C8
:105DF000E07404122CB7D0E01273D1E0FA740512EB
:105E00002CB77401F07406122CB77401F09006F4EC
:105E1000F09006FD041274B5A312600D9006F51201
:105E20005E57EA9006FEF0E50812628FE5091272ED
:105E3000DD9006F3125E4D122ED4E96003122EDAC5
:105E40007407025262EE2404FE12713F221266248D
:105E5000AA82AB8322A3A3E8F0A3E9F02274F21292
:105E600024F074FF122AD17508007E007F001231E1
:105E70007A8A0A8B0B125FEE80050508126006E82D
