:020000040000FA
:10000000020D5B022003FFFFFFFFFF02200BFFFF3B
:10001000FFFFFF020559FFFFFFFFFF02201BFFFF4D
:10002000FFFFFF022023FFFFFFFFFF02202BFFFF48
:10003000FFFFFF022033FFFFFFFFFF02057DFFFFF1
:10004000FFFFFF022043FFFFFFFFFF02204BFFFFE8
:10005000FFFFFF022053FFFFFFFFFF02205BFFFFB8
:10006000FFFFFF022063FFFFFFFFFF02206BFFFF88
:10007000FFFFFF022073FFFFFFFFFF02207BFFFF58
:10008000FFFFFF022083FFFFFFFFFF02208B902076
:1000900000000100000000C80300FFFFFFFF000098
:1000A000040074F7120AF278007900802374922514
:1000B00021F582E43403F583E08A828B83F0900497
:1000C0001212026A4005900412E4F008E870010977
:1000D0009004121201CD6007C3E89CE99D40CEE870
:1000E000FAE9FB7F02020C0F74F5120AF2900496F3
:1000F000E0FEA3E0FF8F21EEC39521F895E0F9EF34
:10010000C39EE8500B120342701178007900801BE7
:10011000247F500109C39CE99D50EF7A007B008049
:1001200041E004F0D2E908E8700109C3E89CE99DC8
:10013000502C8A828B83E0C0E0900497E0FE741616
:100140002EF582E43404F583D0E012034C90049839
:10015000E4F0900497E0C3947F40C6E480C5E8FAD9
:10016000E9FB7F04020C0F800312017AA28B40F995
:10017000A2E950051201A380F722C082C083E5C125
:10018000C28BC0E0900413E0F8749228F582E43446
:1001900003F583D0E0F09004131202634002E4F010
:1001A00002053E74F7120AF2C2E99004961201CDDC
:1001B000601874162521F582E43404F583E0F5C156
:1001C0009004961202634002E4F00200E3E0F5219D
:1001D000A3E065212274F7120AF2780079009005F5
:1001E0001BE07063A3E0705F75F900C28FC284A248
:1001F0008340FCA28F4004A28350F8E5F9C28FA28D
:10020000835004D2848040C0E0E0FE749B2EF582CF
:10021000E43404F583D0E0F090051C12026340D36F
:10022000E4F080CF749B2521F582E43404F583E06B
:100230008A828B83F090051B12026A400590051B91
:10024000E4F008E870010990051B1201CD6007C3B6
:10025000E89CE99D40CEE8497006E4F090051BF06B
:100260000200DFE004F0C3948022E004120350C3D4
:1002700094802274F8120AF290059EE0FF8F82A803
:100280008290059DE0FEEFC39EE0500DC398F89567
:10029000E0F912034170188012C398F895E0F9E86C
:1002A000247F500109C39CE99D4004EC4D70077AFE
:1002B000007B0002033C8A828B83E0F5F9A3AA82CB
:1002C000AB83780179008008E004F008E870010948
:1002D000C3E89CE99D50278A828B83E0C0E09005AB
:1002E0009EE0FE741D2EF582E43405F583D0E01205
:1002F000034C90059EE0C3947F40CDE480CCC28F38
:10030000A28340FCC284A28F4004A28350F89005CF
:100310009D12035BE0F5F9C28F90059DE0FAA3E022
:100320006A90059D700512035B800512026340020E
:10033000E4F0A28350D0D284E8FAE9FB7F01020CFA
:100340000FE824FF18E934FFF9E84922120350228C
:10035000F08A828B83A3AA82AB8322E0FA741D2ADF
:10036000F582E43405F5832274FF120CF91204A31C
:100370001206AEE970030204387E00900390E0702C
:1003800011C2849003917401F07521388E228E235E
:100390008009D2AF8E218E227523268E2490039061
:1003A000E0640170031201677C017D00AA3DAB3E51
:1003B00012050F8B26EA45266018853D82853E830F
:1003C000E06410602CE064EF70088E218E228E2392
:1003D0008E2485212585222685232785242890059E
:1003E000AB7821120D37E52545264527452870AD08
:1003F0000E900390E07009D284900391E4F08002A3
:10040000C2AFEEA2E05031900390E0700C75F8009E
:10041000C2AB539AF7D2EA800C758600C2AAC28B8F
:10042000539AFBC2E990000174CDF0022000C2AFE4
:1004300075C9AB75C95B80FE7521007522007523F7
:1004400000752400794E12048D900390E0640170D1
:1004500004D2AF8005E06401700312016712059EAB
:10046000E960F21206AEE960ECE064017015120179
:10047000679005A37821120D379005AF7821120CF3
:100480008B50EBC2AF75C9AB75C95B80FE78107538
:10049000B60FE5B4A2E750FAE5BBC39940F118E8FE
:1004A00070ED22C082C08353BEFBE59DA2E650FAE8
:1004B0000078F879010012034170FA75C6807480E3
:1004C000659E70FA43BE049062707408F0794A1217
:1004D000048D90000174F5F07403F5D575D48890FF
:1004E00003907401F053FF3F85FFFF53F1FE43F388
:1004F0000C53F2F375868075C480900499E4F0A3E0
:10050000F075C2D875C50B75C402438640802FC0F4
:1005100082C083900390E0640170051200A2801EE7
:10052000900391E06015A28F500BE5F98A828B83CE
:10053000F07A0180027A007B0080031201D5D0831B
:10054000D08222C082C083900390E06401700512C3
:1005500000E8800312027380E5C0E074F2120B58C9
:10056000900001E064CD7005122013800BE064F56B
:10057000700512017A8001007F01020BB7C0E074A0
:10058000F2120B58900001E064CD700512203B8000
:100590000BE064F570051201A380010080DA74F7A6
:1005A000120AF274FF120CF97E008033900384E08B
:1005B000F8853D82853E83E068700D900382E0649B
:1005C0004D700512080BE9FE900385E4F090038757
:1005D000F0853D82853E83E0F8900384E068F07CFE
:1005E000017D00AA3DAB3E12050F8B22EA45227029
:1005F000030206A2853D82853E83E0C0E09003872A
:10060000E0F8900385E0FAE82AF8E4340012099A49
:10061000D0E0F0900387E0601114602014603E1475
:10062000604E14606414608480A7853D82853E839B
:10063000E064FE709C90038774018094900384E4CE
:10064000F0853D82853E83E0900386F0C3948090E0
:1006500003874004E40205D074020205D0853D8280
:10066000853E83E0900382F090038774030205D0F7
:10067000853D82853E83E0900383F0900386E060B1
:100680001990038774040205D0900385E004F0F804
:10069000900386E06860030205D190038774050229
:1006A00005D0EEF97401120CC57F02020C0F74ED37
:1006B000120AF274FB120CF97521047522007821DC
:1006C000120D4A7402120D907A907B00790412097F
:1006D000F07402120CC5853D82853E83E0F4700300
:1006E000A3E0F4600F853D82853E83E0F8A3E0F946
:1006F000E84970030207FF7402120D86E068700378
:10070000A3E06970030207D9752100752900752AD5
:1007100020752B00752C00800A90059F7829120DFA
:100720000F604D7523017524007823120D4A74065D
:10073000120D90852923852A24AA23E5245407FB3A
:100740008A25852A26852B27852C28740B78251247
:100750000CE0A9251209F07402120CC57404120DE4
:1007600086E0F9AA21AB221209B48A218B22800CDF
:10077000752993752A20752B00752C009005A37898
:1007800029120D379005A77829120C8B508BE4F9AC
:100790001209B4E4F91209B47402120D86EAF0A346
:1007A000EBF07521017522007821120D4A740212B6
:1007B0000D907A247B08120A757402120CC57521FB
:1007C000047821120D4A7402120D907A907B007900
:1007D000041209F07402120CC51209A6120D86E06B
:1007E000687003A3E0697017853D82853E83E0F45D
:1007F0007003A3E0F46008E849600479018002799D
:10080000007405120CC57F0C020C0F74F3120AF26F
:1008100074FC120CF9900306E0FAA3E0F8E4C8F9BE
:10082000EA28FEE93408FF752301882288218E25F5
:100830008F2674097825120D6AA925EEF525EF5447
:1008400001F526900383E014600914602C1460699C
:10085000020946EA45267003120ADB752510752643
:10086000007825120D4A7C087D03EEFAEFFB120A90
:10087000757402120CC5020946E9C39479400675E5
:1008800022010209467523407524007823120D4A7F
:100890007C097D0374027825120D24AA25AB26124B
:1008A00009F07402120CC5900307E0A3F090030650
:1008B000E0A3F075234302094675250475260078E8
:1008C00025120D4A7402120D907A907B0079041261
:1008D00009F07402120CC57402120D86E0F8A3E050
:1008E000F9853D82853E83E0687003A3E069603F3F
:1008F0001209A6120D86E8F0A3E9F0752501782506
:10090000120D4A7402120D907A247B08120A757433
:1009100002120CC57525047825120D4A7402120DB9
:10092000907A907B0079041209F07402120CC512BF
:1009300009A6120D86E0687003A3E06970057521B1
:10094000018003752207900305E0D2E7F0E522A3BA
:10095000F0E523900303F0744D6523F5227404251C
:1009600023FB7A038004E062220AEAF83395E0125E
:10097000099AEAC39BA2D265D03340EAE522F0741B
:100980000128FC3395E0FD7A027B03120543A9217F
:100990007404120CC57F06020C0FF9740228F5824C
:1009A000740339F58322853D82853E83E0F8A3E018
:1009B000F9740222C021C0227C088A218B22740F84
:1009C0007821120D6AEA25E0FAEB33FBE9A2E75041
:1009D0000474014AFAE521A2E0500874216AFA740D
:1009E000106BFBE9C333F91CEC70CFD022D021226D
:1009F00074F5120AF28921740F5521F5237524002C
:100A0000740B7823120D24EA2400F8EB3480F9E803
:100A10002400E93524F9E5C7F522A2AFE433F52334
:100A2000C2AFE521C4540FFAE5C754F84AF5C774BC
:100A30000B120D86E0FAA3E0FB801C88828983E01C
:100A40008C828D83F088828983A3A882A9838C827B
:100A50008D83A3AC82AD83EAFEEBFFEE24FF1AEF99
:100A600034FFFBEE4F70D48522C7E523A2E092AF9E
:100A70007F04020C0F74F7120AF2ED900388F0EC79
:100A8000A3F0A37462F0A37473F0A3E0541FF07496
:100A900009120D86E0F521A3E0F522E52133335458
:100AA000FC90038DF074067821120D6AE521900305
:100AB0008CF090038E7412F0A37442F075D1FE7521
:100AC000D601EA906271F0EBA3F0906270E0D2E19F
:100AD000F0E0A2E740FB7F02020C0FC082C083E976
:100AE000C333906272F0906270E0D2E0F0D083D0B5
:100AF0008222253DC582C0E0E53E34FFC583C0E0CB
:100B0000E53DC3958224F910AF0885833E85823D7B
:100B1000800885833E85823DD2AFCEF0A3E520F0EC
:100B2000A37821E608F0A3DEFAEFF0A3E58124FB29
:100B3000F8E608F0A3E608F0A30808E608F0A3E644
:100B400008F0A315811581D0E0FED0E0F8158115DD
:100B500081E8C0E0EEC0E022C0D0253DC582C0E003
:100B6000E53E34FFC583C0E0E53DC3958224F31024
:100B7000AF0885833E85823D800885833E85823D22
:100B8000D2AFC8F0A3E9F0A3EAF0A3EBF0A3792178
:100B9000E709F0A3D8FAECF0A3EDF0A3EEF0A3EF91
:100BA000F0A3D0E0F0A3D0E0F0A3D0E0F0A3E520E4
:100BB000F0A3E5F0F0A322853E83853D82E0C0E00E
:100BC000A3E0F9A3E0FAA3E0FBA37821E0F608A3F1
:100BD000DFFAE0FCA3E0FDA3E0FEA3E0FFA3E0C09A
:100BE000E0A3E0C0E0A3E0F5D0A3E0F520A3E0A3FC
:100BF000F5F010AF0885833E85823D800885833EF1
:100C000085823DD2AFD082D083D0E0F8D0E032856B
:100C10003E83853D82E0A3FEE0A3F5207821E0A39A
:100C2000F608DFFAE0A3FFE0A3C0E0E0A3C0E0E045
:100C3000A3C0E0E0A3C0E010AF0885823D85833EFD
:100C4000800885823D85833ED2AFD083D08222E466
:100C5000900302789E79038002F0A3D8FCD9FA7A37
:100C60009F7B0590008E781579018015E493A3ADE4
:100C700082AE838A828B83F0A3AA82AB838D828E1D
:100C800083D8E9D9E7120368120D98C021C3E09612
:100C9000F52108A3E096422108A3E096422108A38B
:100CA000E09645217001D3D02122253DF58210AF79
:100CB00008F53D400C153E8008F53D4002153ED23A
:100CC000AF853E832200C0D0253D10AF08F53D50D2
:100CD0000C053E8008F53D5002053ED2AFD0D02233
:100CE0006016080808C6C313C618C613C618C6136C
:100CF000C618C613C6D5E0EA22253D10AF08F53D5B
:100D0000400C153E8008F53D4002153ED2AF22E072
:100D100066701008A3E066700A08A3E06670040815
:100D2000A3E06622700422600D18C6C333C608C64D
:100D300033C6D5E0F41822E026F608A3E036F6081C
:100D4000A3E036F608A3E036F62274028000C0E085
:100D5000F404120CAAD0E0120D792275D00075812E
:100D60003F753D02753E03020C4F600C08C6C3136D
:100D7000C618C613C6D5E0F422CAC0E0E6F0A30840
:100D8000DAFAD0E0FA22253DF582E4353EF58322F9
:100D9000253DFCE4353EFD2200000080FBFFFFFF07
:100DA000FFFFFFFFFFFFFFFFFFFFFFFFFFFFFFFF53
:100DB000FFFFFFFFFFFFFFFFFFFFFFFFFFFFFFFF43
:100DC000FFFFFFFFFFFFFFFFFFFFFFFFFFFFFFFF33
:100DD000FFFFFFFFFFFFFFFFFFFFFFFFFFFFFFFF23
:0400000500000D5B8F
:00000001FF
