:020000040000FA
:10000000020AB0022003FFFFFFFFFF02200BFFFFE9
:10001000FFFFFF022013FFFFFFFFFF02201BFFFF78
:10002000FFFFFF022023FFFFFFFFFF02202BFFFF48
:10003000FFFFFF022033FFFFFFFFFF02203BFFFF18
:10004000FFFFFF022043FFFFFFFFFF02204BFFFFE8
:10005000FFFFFF022053FFFFFFFFFF02205BFFFFB8
:10006000FFFFFF022063FFFFFFFFFF02206BFFFF88
:10007000FFFFFF022073FFFFFFFFFF02207BFFFF58
:10008000FFFFFF022083FFFFFFFFFF02208B902076
:1000900000000100000000C80300430056004A00B1
:1000A0007E5331007E533200570045004F4B0058BD
:1000B000005500FFFFFFFF74F71208FE74FF120ADD
:1000C0004E7E008033900384E0F8853D82853E8338
:1000D000E068700D900382E0644D7005120324E91E
:1000E000FE900385E4F0900387F0853D82853E8392
:1000F000E0F8900384E068F07C017D00AA3DAB3E0F
:100100001205098B22EA452270030201BB853D825C
:10011000853E83E0C0E0900387E0F8900385E0FA35
:10012000E82AF8E434001204B3D0E0F0900387E04A
:10013000601114602014603E14604E1460641460FA
:100140008480A7853D82853E83E064FE709C900399
:100150008774018094900384E4F0853D82853E831A
:10016000E0900386F0C394809003874004E402008B
:10017000E974020200E9853D82853E83E0900382B6
:10018000F090038774030200E9853D82853E83E099
:10019000900383F0900386E0601990038774040253
:1001A00000E9900385E004F0F8900386E0686003BE
:1001B0000200EA90038774050200E9EEF974011267
:1001C0000A1A7F0202096474ED1208FE74FB120A17
:1001D0004E7521047522007821120A9F7402120ABA
:1001E000E57A907B0079041207FC7402120A1A85E2
:1001F0003D82853E83E0F47003A3E0F4600F853D0B
:1002000082853E83E0F8A3E0F9E849700302031811
:100210007402120ADBE0687003A3E0697003020253
:10022000F2752100752900752A20752B00752C00A8
:10023000800A9005957829120A64604D752301752E
:1002400024007823120A9F7406120AE58529238563
:100250002A24AA23E5245407FB8A25852A26852BF0
:1002600027852C28740B7825120A35A9251207FC3E
:100270007402120A1A7404120ADBE0F9AA21AB22F2
:100280001204CD8A218B22800C752993752A207542
:100290002B00752C009005997829120A8C90059DE9
:1002A00078291209E0508BE4F91204CDE4F9120424
:1002B000CD7402120ADBEAF0A3EBF075210175227E
:1002C000007821120A9F7402120AE57A247B081230
:1002D00008817402120A1A7521047821120A9F7487
:1002E00002120AE57A907B0079041207FC7402126C
:1002F0000A1A1204BF120ADBE0687003A3E06970F7
:1003000017853D82853E83E0F47003A3E0F4600826
:10031000E84960047901800279007405120A1A7FA5
:100320000C02096474F31208FE74FC120A4E900366
:1003300006E0FAA3E0F8E4C8F9EA28FEE93408FF89
:10034000752301882288218E258F2674097825122D
:100350000ABFA925EEF525EF5401F526900383E0A9
:1003600014600914602C14606902045FEA45267069
:10037000031208E77525107526007825120A9F7C60
:10038000087D03EEFAEFFB1208817402120A1A02CA
:10039000045FE9C39479400675220102045F752366
:1003A000407524007823120A9F7C097D037402782B
:1003B00025120A79AA25AB261207FC7402120A1A22
:1003C000900307E0A3F0900306E0A3F07523430237
:1003D000045F7525047526007825120A9F740212A1
:1003E0000AE57A907B0079041207FC7402120A1A5B
:1003F0007402120ADBE0F8A3E0F9853D82853E83B2
:10040000E0687003A3E069603F1204BF120ADBE8F2
:10041000F0A3E9F07525017825120A9F7402120AEB
:10042000E57A247B081208817402120A1A752504E1
:100430007825120A9F7402120AE57A907B007904EB
:100440001207FC7402120A1A1204BF120ADBE068D7
:100450007003A3E069700575210180037522079080
:100460000305E0D2E7F0E522A3F0E523900303F0D3
:10047000744D6523F52274042523FB7A038004E080
:1004800062220AEAF83395E01204B3EAC39BA2D2CF
:1004900065D03340EAE522F0740128FC3395E0FD95
:1004A0007A027B03120558A9217404120A1A7F06E6
:1004B000020964F9740228F582740339F5832285F0
:1004C0003D82853E83E0F8A3E0F9740222C021C09A
:1004D000227C088A218B22740F7821120ABFEA2518
:1004E000E0FAEB33FBE9A2E7500474014AFAE52194
:1004F000A2E0500874216AFA74106BFBE9C333F967
:100500001CEC70CFD022D0212274F71208FE7800A4
:100510007900802874902521F582E43403F583E086
:100520008A828B83F090048EE0041205D7C394FE78
:10053000400590048EE4F008E870010990048EE014
:10054000F521A3E065216007C3E89CE99D40C5E86B
:10055000FAE9FB7F0202096474F51208FE90059027
:10056000E0FEA3E0FF8F21EEC39521F895E0F9EFBF
:10057000C39EE8500B1207CF701178007900801BE2
:1005800024FD500109C39CE99D50EF7A007B008057
:1005900041E004F0D2E908E8700109C3E89CE99D54
:1005A000502C8A828B83E0C0E0900591E0FE74922B
:1005B0002EF582E43404F583D0E01205D79005923D
:1005C000E4F0900591E0C394FD40C6E480C5E8FAEC
:1005D000E9FB7F04020964F08A828B83A3AA82ABC1
:1005E000832274F71208FE8025E5C1C28BC0E0901B
:1005F000048FE0F8749028F582E43403F583D0E0AA
:10060000F090048FE004F0C394FE4002E4F0A28B6B
:1006100040D7A2E9502BC2E9900590E0F521A3E074
:10062000652160EE74922521F582E43404F583E0BF
:10063000F5C1900590E004F0C394FE40D5E4F0804D
:10064000D102055374FF120A4E794A1207E653BECF
:10065000FBE59DA2E650FA0078F8790100E8120760
:10066000CF70F975C600E59E70FC43BE04906270C1
:100670007408F0C29043FE01C29143FE02C294434B
:10068000FE10438F017403F5D575D48853FF3F8561
:10069000FFFF53F1FE43F30C53F2F375868075C4EC
:1006A00080900593E4F0A3F075C2D875C50B75C4AE
:1006B000024386407C02FD7AB37B051205587C011B
:1006C0007D007AA17B051205581201C7E97003026B
:1006D00007697C017D007AA37B05120558E59D54CE
:1006E000186410700E7C017D007AA57B05120558F8
:1006F0001207D97521007522007523267524008004
:1007000032E064EF700C75210075220075230075CE
:1007100024008521258522268523278524289005E8
:10072000BA7821120A8CE52545264527452870030D
:100730001207D97C017D007AB67B05120558120597
:10074000E27C017D00AA3DAB3E1205098B26EA45FD
:100750002660BF7C017D007AB87B05120558853D77
:1007600082853E83E0641070987C037D007AA77BCD
:10077000051205587C037D007AAB7B051205587C79
:10078000017D007AAF7B05120558794E1207E67C91
:10079000017D007AB17B051205581205E21200B7FF
:1007A000E960F71201C7E960F17521007522007553
:1007B00023047524001205E29005BA7821120A8CF0
:1007C000E52145224523452470EB1207D980CB242F
:1007D000FF18E934FFF9E84922022000C2AF75C9C9
:1007E000AB75C95B80FE781075B60FE5B4A2E75013
:1007F000FAE5BBC39940F118E870ED2274F51208D0
:10080000FE8921740F5521F523752400740B78237C
:10081000120A79EA2400F8EB3480F9E82400E9357B
:1008200024F9E5C7F522A2AFE433F523C2AFE521F1
:10083000C4540FFAE5C754F84AF5C7740B120ADB23
:10084000E0FAA3E0FB801C88828983E08C828D83A0
:10085000F088828983A3A882A9838C828D83A3AC2C
:1008600082AD83EAFEEBFFEE24FF1AEF34FFFBEECE
:100870004F70D48522C7E523A2E092AF7F0402091E
:100880006474F71208FEED900388F0ECA3F0A374F3
:1008900062F0A37473F0A3E0541FF07409120ADB32
:1008A000E0F521A3E0F522E521333354FC90038DDC
:1008B000F074067821120ABFE52190038CF09003B2
:1008C0008E7412F0A37442F075D1FE75D601EA90D1
:1008D0006271F0EBA3F0906270E0D2E1F0E0A2E789
:1008E00040FB7F02020964C082C083E9C333906287
:1008F00072F0906270E0D2E0F0D083D08222253D89
:10090000C582C0E0E53E34FFC583C0E0E53DC39548
:100910008224F910AF0885833E85823D8008858357
:100920003E85823DD2AFCEF0A3E520F0A37821E64C
:1009300008F0A3DEFAEFF0A3E58124FBF8E608F067
:10094000A3E608F0A30808E608F0A3E608F0A3155C
:10095000811581D0E0FED0E0F815811581E8C0E076
:10096000EEC0E022853E83853D82E0A3FEE0A3F554
:10097000207821E0A3F608DFFAE0A3FFE0A3C0E0BF
:10098000E0A3C0E0E0A3C0E0E0A3C0E010AF0885B2
:10099000823D85833E800885823D85833ED2AFD0EF
:1009A00083D08222E4900302789479038002F0A33A
:1009B000D8FCD9FA7A957B0590008E782A79018047
:1009C00015E493A3AD82AE838A828B83F0A3AA82BF
:1009D000AB838D828E83D8E9D9E7120644120AEDE3
:1009E000C021C3E096F52108A3E096422108A3E0C8
:1009F00096422108A3E09645217001D3D0212225FB
:100A00003DF58210AF08F53D400C153E8008F53DE0
:100A10004002153ED2AF853E832200C0D0253D1056
:100A2000AF08F53D500C053E8008F53D5002053EEF
:100A3000D2AFD0D0226016080808C6C313C618C6A5
:100A400013C618C613C618C613C6D5E0EA22253D3C
:100A500010AF08F53D400C153E8008F53D400215ED
:100A60003ED2AF22E066701008A3E066700A08A3C9
:100A7000E066700408A3E06622700422600D18C6C8
:100A8000C333C608C633C6D5E0F41822E026F608FC
:100A9000A3E036F608A3E036F608A3E036F62274A3
:100AA000028000C0E0F4041209FFD0E0120ACE2256
:100AB00075D00075813F753D02753E030209A46043
:100AC0000C08C6C313C618C613C6D5E0F422CAC0A4
:100AD000E0E6F0A308DAFAD0E0FA22253DF582E458
:100AE000353EF58322253DFCE4353EFD2200000025
:100AF00080FBFFFFFFFFFFFFFFFFFFFFFFFFFFFF89
:100B0000FFFFFFFFFFFFFFFFFFFFFFFFFFFFFFFFF5
:100B1000FFFFFFFFFFFFFFFFFFFFFFFFFFFFFFFFE5
:100B2000FFFFFFFFFFFFFFFFFFFFFFFFFFFFFFFFD5
:100B3000FFFFFFFFFFFFFFFFFFFFFFFFFFFFFFFFC5
:0400000500000AB03D
:00000001FF
